{
  "contractName": "Arb",
  "abi": [
    {
      "anonymous": false,
      "inputs": [
        {
          "indexed": true,
          "internalType": "address",
          "name": "previousOwner",
          "type": "address"
        },
        {
          "indexed": true,
          "internalType": "address",
          "name": "newOwner",
          "type": "address"
        }
      ],
      "name": "OwnershipTransferred",
      "type": "event"
    },
    {
      "inputs": [],
      "name": "owner",
      "outputs": [
        {
          "internalType": "address",
          "name": "",
          "type": "address"
        }
      ],
      "stateMutability": "view",
      "type": "function"
    },
    {
      "inputs": [],
      "name": "renounceOwnership",
      "outputs": [],
      "stateMutability": "nonpayable",
      "type": "function"
    },
    {
      "inputs": [
        {
          "internalType": "address",
          "name": "newOwner",
          "type": "address"
        }
      ],
      "name": "transferOwnership",
      "outputs": [],
      "stateMutability": "nonpayable",
      "type": "function"
    },
    {
      "inputs": [
        {
          "internalType": "address",
          "name": "router",
          "type": "address"
        },
        {
          "internalType": "address",
          "name": "_tokenIn",
          "type": "address"
        },
        {
          "internalType": "address",
          "name": "_tokenOut",
          "type": "address"
        },
        {
          "internalType": "uint256",
          "name": "_amount",
          "type": "uint256"
        }
      ],
      "name": "getAmountOutMin",
      "outputs": [
        {
          "internalType": "uint256",
          "name": "",
          "type": "uint256"
        }
      ],
      "stateMutability": "view",
      "type": "function"
    },
    {
      "inputs": [
        {
          "internalType": "address",
          "name": "_router1",
          "type": "address"
        },
        {
          "internalType": "address",
          "name": "_router2",
          "type": "address"
        },
        {
          "internalType": "address",
          "name": "_token1",
          "type": "address"
        },
        {
          "internalType": "address",
          "name": "_token2",
          "type": "address"
        },
        {
          "internalType": "uint256",
          "name": "_amount",
          "type": "uint256"
        }
      ],
      "name": "estimateDualDexTrade",
      "outputs": [
        {
          "internalType": "uint256",
          "name": "",
          "type": "uint256"
        }
      ],
      "stateMutability": "view",
      "type": "function"
    },
    {
      "inputs": [
        {
          "internalType": "address",
          "name": "_router1",
          "type": "address"
        },
        {
          "internalType": "address",
          "name": "_router2",
          "type": "address"
        },
        {
          "internalType": "address",
          "name": "_token1",
          "type": "address"
        },
        {
          "internalType": "address",
          "name": "_token2",
          "type": "address"
        },
        {
          "internalType": "uint256",
          "name": "_amount",
          "type": "uint256"
        }
      ],
      "name": "dualDexTrade",
      "outputs": [],
      "stateMutability": "nonpayable",
      "type": "function"
    }
  ],
  "bytecode": "0x608060405234801561001057600080fd5b5060006100216100c460201b60201c565b9050806000806101000a81548173ffffffffffffffffffffffffffffffffffffffff021916908373ffffffffffffffffffffffffffffffffffffffff1602179055508073ffffffffffffffffffffffffffffffffffffffff16600073ffffffffffffffffffffffffffffffffffffffff167f8be0079c531659141344cd1fd0a4f28419497f9722a3daafe3b4186f6b6457e060405160405180910390a3506100cc565b600033905090565b6113f9806100db6000396000f3fe608060405234801561001057600080fd5b50600436106100625760003560e01c8063068e7ca1146100675780631aa513181461009757806343cf6f24146100b3578063715018a6146100e35780638da5cb5b146100ed578063f2fde38b1461010b575b600080fd5b610081600480360381019061007c9190610bfe565b610127565b60405161008e9190610c88565b60405180910390f35b6100b160048036038101906100ac9190610bfe565b610156565b005b6100cd60048036038101906100c89190610ca3565b610459565b6040516100da9190610c88565b60405180910390f35b6100eb610600565b005b6100f5610753565b6040516101029190610d19565b60405180910390f35b61012560048036038101906101209190610d34565b61077c565b005b60008061013687868686610459565b9050600061014687868885610459565b9050809250505095945050505050565b61015e61093e565b73ffffffffffffffffffffffffffffffffffffffff1660008054906101000a900473ffffffffffffffffffffffffffffffffffffffff1673ffffffffffffffffffffffffffffffffffffffff16146101eb576040517f08c379a00000000000000000000000000000000000000000000000000000000081526004016101e290610dbe565b60405180910390fd5b60008373ffffffffffffffffffffffffffffffffffffffff166370a08231306040518263ffffffff1660e01b81526004016102269190610d19565b602060405180830381865afa158015610243573d6000803e3d6000fd5b505050506040513d601f19601f820116820180604052508101906102679190610df3565b905060008373ffffffffffffffffffffffffffffffffffffffff166370a08231306040518263ffffffff1660e01b81526004016102a49190610d19565b602060405180830381865afa1580156102c1573d6000803e3d6000fd5b505050506040513d601f19601f820116820180604052508101906102e59190610df3565b90506102f387868686610946565b60008473ffffffffffffffffffffffffffffffffffffffff166370a08231306040518263ffffffff1660e01b815260040161032e9190610d19565b602060405180830381865afa15801561034b573d6000803e3d6000fd5b505050506040513d601f19601f8201168201806040525081019061036f9190610df3565b90506000828261037f9190610e4f565b905061038d88878984610946565b60008773ffffffffffffffffffffffffffffffffffffffff166370a08231306040518263ffffffff1660e01b81526004016103c89190610d19565b602060405180830381865afa1580156103e5573d6000803e3d6000fd5b505050506040513d601f19601f820116820180604052508101906104099190610df3565b905084811161044d576040517f08c379a000000000000000000000000000000000000000000000000000000000815260040161044490610ecf565b60405180910390fd5b50505050505050505050565b60006060600267ffffffffffffffff81111561047857610477610eef565b5b6040519080825280602002602001820160405280156104a65781602001602082028036833780820191505090505b50905084816000815181106104be576104bd610f1e565b5b602002602001019073ffffffffffffffffffffffffffffffffffffffff16908173ffffffffffffffffffffffffffffffffffffffff1681525050838160018151811061050d5761050c610f1e565b5b602002602001019073ffffffffffffffffffffffffffffffffffffffff16908173ffffffffffffffffffffffffffffffffffffffff168152505060008673ffffffffffffffffffffffffffffffffffffffff1663d06ca61f85846040518363ffffffff1660e01b815260040161058492919061100b565b600060405180830381865afa1580156105a1573d6000803e3d6000fd5b505050506040513d6000823e3d601f19601f820116820180604052508101906105ca9190611165565b905080600183516105db9190610e4f565b815181106105ec576105eb610f1e565b5b602002602001015192505050949350505050565b61060861093e565b73ffffffffffffffffffffffffffffffffffffffff1660008054906101000a900473ffffffffffffffffffffffffffffffffffffffff1673ffffffffffffffffffffffffffffffffffffffff1614610695576040517f08c379a000000000000000000000000000000000000000000000000000000000815260040161068c90610dbe565b60405180910390fd5b600073ffffffffffffffffffffffffffffffffffffffff1660008054906101000a900473ffffffffffffffffffffffffffffffffffffffff1673ffffffffffffffffffffffffffffffffffffffff167f8be0079c531659141344cd1fd0a4f28419497f9722a3daafe3b4186f6b6457e060405160405180910390a360008060006101000a81548173ffffffffffffffffffffffffffffffffffffffff021916908373ffffffffffffffffffffffffffffffffffffffff160217905550565b60008060009054906101000a900473ffffffffffffffffffffffffffffffffffffffff16905090565b61078461093e565b73ffffffffffffffffffffffffffffffffffffffff1660008054906101000a900473ffffffffffffffffffffffffffffffffffffffff1673ffffffffffffffffffffffffffffffffffffffff1614610811576040517f08c379a000000000000000000000000000000000000000000000000000000000815260040161080890610dbe565b60405180910390fd5b600073ffffffffffffffffffffffffffffffffffffffff168173ffffffffffffffffffffffffffffffffffffffff161415610881576040517f08c379a000000000000000000000000000000000000000000000000000000000815260040161087890611220565b60405180910390fd5b8073ffffffffffffffffffffffffffffffffffffffff1660008054906101000a900473ffffffffffffffffffffffffffffffffffffffff1673ffffffffffffffffffffffffffffffffffffffff167f8be0079c531659141344cd1fd0a4f28419497f9722a3daafe3b4186f6b6457e060405160405180910390a3806000806101000a81548173ffffffffffffffffffffffffffffffffffffffff021916908373ffffffffffffffffffffffffffffffffffffffff16021790555050565b600033905090565b8273ffffffffffffffffffffffffffffffffffffffff1663095ea7b385836040518363ffffffff1660e01b8152600401610981929190611240565b6020604051808303816000875af11580156109a0573d6000803e3d6000fd5b505050506040513d601f19601f820116820180604052508101906109c491906112a1565b506060600267ffffffffffffffff8111156109e2576109e1610eef565b5b604051908082528060200260200182016040528015610a105781602001602082028036833780820191505090505b5090508381600081518110610a2857610a27610f1e565b5b602002602001019073ffffffffffffffffffffffffffffffffffffffff16908173ffffffffffffffffffffffffffffffffffffffff16815250508281600181518110610a7757610a76610f1e565b5b602002602001019073ffffffffffffffffffffffffffffffffffffffff16908173ffffffffffffffffffffffffffffffffffffffff1681525050600061012c42610ac191906112ce565b90508573ffffffffffffffffffffffffffffffffffffffff166338ed17398460018530866040518663ffffffff1660e01b8152600401610b05959493929190611369565b6000604051808303816000875af1158015610b24573d6000803e3d6000fd5b505050506040513d6000823e3d601f19601f82011682018060405250810190610b4d9190611165565b50505050505050565b6000604051905090565b600080fd5b600080fd5b600073ffffffffffffffffffffffffffffffffffffffff82169050919050565b6000610b9582610b6a565b9050919050565b610ba581610b8a565b8114610bb057600080fd5b50565b600081359050610bc281610b9c565b92915050565b6000819050919050565b610bdb81610bc8565b8114610be657600080fd5b50565b600081359050610bf881610bd2565b92915050565b600080600080600060a08688031215610c1a57610c19610b60565b5b6000610c2888828901610bb3565b9550506020610c3988828901610bb3565b9450506040610c4a88828901610bb3565b9350506060610c5b88828901610bb3565b9250506080610c6c88828901610be9565b9150509295509295909350565b610c8281610bc8565b82525050565b6000602082019050610c9d6000830184610c79565b92915050565b60008060008060808587031215610cbd57610cbc610b60565b5b6000610ccb87828801610bb3565b9450506020610cdc87828801610bb3565b9350506040610ced87828801610bb3565b9250506060610cfe87828801610be9565b91505092959194509250565b610d1381610b8a565b82525050565b6000602082019050610d2e6000830184610d0a565b92915050565b600060208284031215610d4a57610d49610b60565b5b6000610d5884828501610bb3565b91505092915050565b600082825260208201905092915050565b7f4f776e61626c653a2063616c6c6572206973206e6f7420746865206f776e6572600082015250565b6000610da8602083610d61565b9150610db382610d72565b602082019050919050565b60006020820190508181036000830152610dd781610d9b565b9050919050565b600081519050610ded81610bd2565b92915050565b600060208284031215610e0957610e08610b60565b5b6000610e1784828501610dde565b91505092915050565b7f4e487b7100000000000000000000000000000000000000000000000000000000600052601160045260246000fd5b6000610e5a82610bc8565b9150610e6583610bc8565b925082821015610e7857610e77610e20565b5b828203905092915050565b7f54726164652052657665727465642c204e6f2050726f666974204d6164650000600082015250565b6000610eb9601e83610d61565b9150610ec482610e83565b602082019050919050565b60006020820190508181036000830152610ee881610eac565b9050919050565b7f4e487b7100000000000000000000000000000000000000000000000000000000600052604160045260246000fd5b7f4e487b7100000000000000000000000000000000000000000000000000000000600052603260045260246000fd5b600081519050919050565b600082825260208201905092915050565b6000819050602082019050919050565b610f8281610b8a565b82525050565b6000610f948383610f79565b60208301905092915050565b6000602082019050919050565b6000610fb882610f4d565b610fc28185610f58565b9350610fcd83610f69565b8060005b83811015610ffe578151610fe58882610f88565b9750610ff083610fa0565b925050600181019050610fd1565b5085935050505092915050565b60006040820190506110206000830185610c79565b81810360208301526110328184610fad565b90509392505050565b600080fd5b6000601f19601f8301169050919050565b61105a82611040565b810181811067ffffffffffffffff8211171561107957611078610eef565b5b80604052505050565b600061108c610b56565b90506110988282611051565b919050565b600067ffffffffffffffff8211156110b8576110b7610eef565b5b602082029050602081019050919050565b600080fd5b60006110e16110dc8461109d565b611082565b90508083825260208201905060208402830185811115611104576111036110c9565b5b835b8181101561112d57806111198882610dde565b845260208401935050602081019050611106565b5050509392505050565b600082601f83011261114c5761114b61103b565b5b815161115c8482602086016110ce565b91505092915050565b60006020828403121561117b5761117a610b60565b5b600082015167ffffffffffffffff81111561119957611198610b65565b5b6111a584828501611137565b91505092915050565b7f4f776e61626c653a206e6577206f776e657220697320746865207a65726f206160008201527f6464726573730000000000000000000000000000000000000000000000000000602082015250565b600061120a602683610d61565b9150611215826111ae565b604082019050919050565b60006020820190508181036000830152611239816111fd565b9050919050565b60006040820190506112556000830185610d0a565b6112626020830184610c79565b9392505050565b60008115159050919050565b61127e81611269565b811461128957600080fd5b50565b60008151905061129b81611275565b92915050565b6000602082840312156112b7576112b6610b60565b5b60006112c58482850161128c565b91505092915050565b60006112d982610bc8565b91506112e483610bc8565b9250827fffffffffffffffffffffffffffffffffffffffffffffffffffffffffffffffff0382111561131957611318610e20565b5b828201905092915050565b6000819050919050565b6000819050919050565b600061135361134e61134984611324565b61132e565b610bc8565b9050919050565b61136381611338565b82525050565b600060a08201905061137e6000830188610c79565b61138b602083018761135a565b818103604083015261139d8186610fad565b90506113ac6060830185610d0a565b6113b96080830184610c79565b969550505050505056fea26469706673582212202d1337c02029aecfc374e79aa0c47aaeb132208cc90bbcc084aa3678fa8c1db864736f6c634300080a0033",
  "immutableReferences": {},
  "source": "//SPDX-License-Identifier: Unlicense\npragma solidity ^0.8.10;\n\nimport {Ownable} from \"@aave/core-v3/contracts/dependencies/openzeppelin/contracts/Ownable.sol\";\nimport {IERC20} from \"@aave/core-v3/contracts/dependencies/openzeppelin/contracts/IERC20.sol\";\n\ninterface IUniswapV2Router {\n  function getAmountsOut(uint256 amountIn, address[] memory path) external view returns (uint256[] memory amounts);\n  function swapExactTokensForTokens(uint256 amountIn, uint256 amountOutMin, address[] calldata path, address to, uint256 deadline) external returns (uint256[] memory amounts);\n}\n\ninterface IUniswapV2Pair {\n  function token0() external view returns (address);\n  function token1() external view returns (address);\n  function swap(uint256 amount0Out,\tuint256 amount1Out,\taddress to,\tbytes calldata data) external;\n}\n\ncontract Arb is Ownable {\n\n\tfunction swap(address router, address _tokenIn, address _tokenOut, uint256 _amount) private {\n\t\tIERC20(_tokenIn).approve(router, _amount);\n\t\taddress[] memory path;\n\t\tpath = new address[](2);\n\t\tpath[0] = _tokenIn;\n\t\tpath[1] = _tokenOut;\n\t\tuint deadline = block.timestamp + 300;\n\t\tIUniswapV2Router(router).swapExactTokensForTokens(_amount, 1, path, address(this), deadline);\n\t}\n\n\tfunction getAmountOutMin(address router, address _tokenIn, address _tokenOut, uint256 _amount) public view returns (uint256) {\n\t\taddress[] memory path;\n\t\tpath = new address[](2);\n\t\tpath[0] = _tokenIn;\n\t\tpath[1] = _tokenOut;\n\t\tuint256[] memory amountOutMins = IUniswapV2Router(router).getAmountsOut(_amount, path);\n\t\treturn amountOutMins[path.length -1];\n\t}\n\n\tfunction estimateDualDexTrade(address _router1, address _router2, address _token1, address _token2, uint256 _amount) external view returns (uint256) {\n\t\tuint256 amtBack1 = getAmountOutMin(_router1, _token1, _token2, _amount);\n\t\tuint256 amtBack2 = getAmountOutMin(_router2, _token2, _token1, amtBack1);\n\t\treturn amtBack2;\n\t}\n\t\n\tfunction dualDexTrade(address _router1, address _router2, address _token1, address _token2, uint256 _amount) external onlyOwner {\n\t\tuint startBalance = IERC20(_token1).balanceOf(address(this));\n\t\tuint token2InitialBalance = IERC20(_token2).balanceOf(address(this));\n\t\tswap(_router1,_token1, _token2,_amount);\n\t\tuint token2Balance = IERC20(_token2).balanceOf(address(this));\n\t\tuint tradeableAmount = token2Balance - token2InitialBalance;\n\t\tswap(_router2,_token2, _token1,tradeableAmount);\n\t\tuint endBalance = IERC20(_token1).balanceOf(address(this));\n\t\trequire(endBalance > startBalance, \"Trade Reverted, No Profit Made\");\n\t}\n}\n",
  "sourcePath": "/Users/vasilis/Projects/flashSwaps/flashloan-swaps/contracts/Arb.sol",
  "compiler": {
    "name": "solc",
    "version": "0.8.10+commit.fc410830.Emscripten.clang"
  },
  "schemaVersion": "3.4.10",
  "updatedAt": "2022-11-20T11:41:57.415Z",
  "devdoc": {
    "kind": "dev",
    "methods": {
      "owner()": {
        "details": "Returns the address of the current owner."
      },
      "renounceOwnership()": {
        "details": "Leaves the contract without owner. It will not be possible to call `onlyOwner` functions anymore. Can only be called by the current owner. NOTE: Renouncing ownership will leave the contract without an owner, thereby removing any functionality that is only available to the owner."
      },
      "transferOwnership(address)": {
        "details": "Transfers ownership of the contract to a new account (`newOwner`). Can only be called by the current owner."
      }
    },
    "version": 1
  },
  "userdoc": {
    "kind": "user",
    "methods": {},
    "version": 1
  }
}