{
  "contractName": "Arb",
  "abi": [
    {
      "anonymous": false,
      "inputs": [
        {
          "indexed": true,
          "internalType": "address",
          "name": "previousOwner",
          "type": "address"
        },
        {
          "indexed": true,
          "internalType": "address",
          "name": "newOwner",
          "type": "address"
        }
      ],
      "name": "OwnershipTransferred",
      "type": "event"
    },
    {
      "inputs": [],
      "name": "owner",
      "outputs": [
        {
          "internalType": "address",
          "name": "",
          "type": "address"
        }
      ],
      "stateMutability": "view",
      "type": "function"
    },
    {
      "inputs": [],
      "name": "renounceOwnership",
      "outputs": [],
      "stateMutability": "nonpayable",
      "type": "function"
    },
    {
      "inputs": [
        {
          "internalType": "address",
          "name": "newOwner",
          "type": "address"
        }
      ],
      "name": "transferOwnership",
      "outputs": [],
      "stateMutability": "nonpayable",
      "type": "function"
    },
    {
      "inputs": [
        {
          "internalType": "address",
          "name": "router",
          "type": "address"
        },
        {
          "internalType": "address",
          "name": "_tokenIn",
          "type": "address"
        },
        {
          "internalType": "address",
          "name": "_tokenOut",
          "type": "address"
        },
        {
          "internalType": "uint256",
          "name": "_amount",
          "type": "uint256"
        }
      ],
      "name": "getAmountOutMin",
      "outputs": [
        {
          "internalType": "uint256",
          "name": "",
          "type": "uint256"
        }
      ],
      "stateMutability": "view",
      "type": "function"
    },
    {
      "inputs": [
        {
          "internalType": "address",
          "name": "_router1",
          "type": "address"
        },
        {
          "internalType": "address",
          "name": "_router2",
          "type": "address"
        },
        {
          "internalType": "address",
          "name": "_token1",
          "type": "address"
        },
        {
          "internalType": "address",
          "name": "_token2",
          "type": "address"
        },
        {
          "internalType": "uint256",
          "name": "_amount",
          "type": "uint256"
        }
      ],
      "name": "estimateDualDexTrade",
      "outputs": [
        {
          "internalType": "uint256",
          "name": "",
          "type": "uint256"
        }
      ],
      "stateMutability": "view",
      "type": "function"
    },
    {
      "inputs": [
        {
          "internalType": "address",
          "name": "_router1",
          "type": "address"
        },
        {
          "internalType": "address",
          "name": "_router2",
          "type": "address"
        },
        {
          "internalType": "address",
          "name": "_router3",
          "type": "address"
        },
        {
          "internalType": "address",
          "name": "_token1",
          "type": "address"
        },
        {
          "internalType": "address",
          "name": "_token2",
          "type": "address"
        },
        {
          "internalType": "address",
          "name": "_token3",
          "type": "address"
        },
        {
          "internalType": "uint256",
          "name": "_amount",
          "type": "uint256"
        }
      ],
      "name": "estimateTriDexTrade",
      "outputs": [
        {
          "internalType": "uint256",
          "name": "",
          "type": "uint256"
        }
      ],
      "stateMutability": "view",
      "type": "function"
    }
  ],
  "bytecode": "0x608060405234801561001057600080fd5b5060006100216100c460201b60201c565b9050806000806101000a81548173ffffffffffffffffffffffffffffffffffffffff021916908373ffffffffffffffffffffffffffffffffffffffff1602179055508073ffffffffffffffffffffffffffffffffffffffff16600073ffffffffffffffffffffffffffffffffffffffff167f8be0079c531659141344cd1fd0a4f28419497f9722a3daafe3b4186f6b6457e060405160405180910390a3506100cc565b600033905090565b610dc2806100db6000396000f3fe608060405234801561001057600080fd5b50600436106100625760003560e01c8063068e7ca11461006757806326a215ec1461009757806343cf6f24146100c7578063715018a6146100f75780638da5cb5b14610101578063f2fde38b1461011f575b600080fd5b610081600480360381019061007c9190610741565b61013b565b60405161008e91906107cb565b60405180910390f35b6100b160048036038101906100ac91906107e6565b61016a565b6040516100be91906107cb565b60405180910390f35b6100e160048036038101906100dc9190610888565b6101ac565b6040516100ee91906107cb565b60405180910390f35b6100ff610353565b005b6101096104a6565b60405161011691906108fe565b60405180910390f35b61013960048036038101906101349190610919565b6104cf565b005b60008061014a878686866101ac565b9050600061015a878688856101ac565b9050809250505095945050505050565b600080610179898787866101ac565b90506000610189898787856101ac565b9050600061019989878a856101ac565b9050809350505050979650505050505050565b60006060600267ffffffffffffffff8111156101cb576101ca610946565b5b6040519080825280602002602001820160405280156101f95781602001602082028036833780820191505090505b509050848160008151811061021157610210610975565b5b602002602001019073ffffffffffffffffffffffffffffffffffffffff16908173ffffffffffffffffffffffffffffffffffffffff168152505083816001815181106102605761025f610975565b5b602002602001019073ffffffffffffffffffffffffffffffffffffffff16908173ffffffffffffffffffffffffffffffffffffffff168152505060008673ffffffffffffffffffffffffffffffffffffffff1663d06ca61f85846040518363ffffffff1660e01b81526004016102d7929190610a62565b600060405180830381865afa1580156102f4573d6000803e3d6000fd5b505050506040513d6000823e3d601f19601f8201168201806040525081019061031d9190610bd1565b9050806001835161032e9190610c49565b8151811061033f5761033e610975565b5b602002602001015192505050949350505050565b61035b610691565b73ffffffffffffffffffffffffffffffffffffffff1660008054906101000a900473ffffffffffffffffffffffffffffffffffffffff1673ffffffffffffffffffffffffffffffffffffffff16146103e8576040517f08c379a00000000000000000000000000000000000000000000000000000000081526004016103df90610cda565b60405180910390fd5b600073ffffffffffffffffffffffffffffffffffffffff1660008054906101000a900473ffffffffffffffffffffffffffffffffffffffff1673ffffffffffffffffffffffffffffffffffffffff167f8be0079c531659141344cd1fd0a4f28419497f9722a3daafe3b4186f6b6457e060405160405180910390a360008060006101000a81548173ffffffffffffffffffffffffffffffffffffffff021916908373ffffffffffffffffffffffffffffffffffffffff160217905550565b60008060009054906101000a900473ffffffffffffffffffffffffffffffffffffffff16905090565b6104d7610691565b73ffffffffffffffffffffffffffffffffffffffff1660008054906101000a900473ffffffffffffffffffffffffffffffffffffffff1673ffffffffffffffffffffffffffffffffffffffff1614610564576040517f08c379a000000000000000000000000000000000000000000000000000000000815260040161055b90610cda565b60405180910390fd5b600073ffffffffffffffffffffffffffffffffffffffff168173ffffffffffffffffffffffffffffffffffffffff1614156105d4576040517f08c379a00000000000000000000000000000000000000000000000000000000081526004016105cb90610d6c565b60405180910390fd5b8073ffffffffffffffffffffffffffffffffffffffff1660008054906101000a900473ffffffffffffffffffffffffffffffffffffffff1673ffffffffffffffffffffffffffffffffffffffff167f8be0079c531659141344cd1fd0a4f28419497f9722a3daafe3b4186f6b6457e060405160405180910390a3806000806101000a81548173ffffffffffffffffffffffffffffffffffffffff021916908373ffffffffffffffffffffffffffffffffffffffff16021790555050565b600033905090565b6000604051905090565b600080fd5b600080fd5b600073ffffffffffffffffffffffffffffffffffffffff82169050919050565b60006106d8826106ad565b9050919050565b6106e8816106cd565b81146106f357600080fd5b50565b600081359050610705816106df565b92915050565b6000819050919050565b61071e8161070b565b811461072957600080fd5b50565b60008135905061073b81610715565b92915050565b600080600080600060a0868803121561075d5761075c6106a3565b5b600061076b888289016106f6565b955050602061077c888289016106f6565b945050604061078d888289016106f6565b935050606061079e888289016106f6565b92505060806107af8882890161072c565b9150509295509295909350565b6107c58161070b565b82525050565b60006020820190506107e060008301846107bc565b92915050565b600080600080600080600060e0888a031215610805576108046106a3565b5b60006108138a828b016106f6565b97505060206108248a828b016106f6565b96505060406108358a828b016106f6565b95505060606108468a828b016106f6565b94505060806108578a828b016106f6565b93505060a06108688a828b016106f6565b92505060c06108798a828b0161072c565b91505092959891949750929550565b600080600080608085870312156108a2576108a16106a3565b5b60006108b0878288016106f6565b94505060206108c1878288016106f6565b93505060406108d2878288016106f6565b92505060606108e38782880161072c565b91505092959194509250565b6108f8816106cd565b82525050565b600060208201905061091360008301846108ef565b92915050565b60006020828403121561092f5761092e6106a3565b5b600061093d848285016106f6565b91505092915050565b7f4e487b7100000000000000000000000000000000000000000000000000000000600052604160045260246000fd5b7f4e487b7100000000000000000000000000000000000000000000000000000000600052603260045260246000fd5b600081519050919050565b600082825260208201905092915050565b6000819050602082019050919050565b6109d9816106cd565b82525050565b60006109eb83836109d0565b60208301905092915050565b6000602082019050919050565b6000610a0f826109a4565b610a1981856109af565b9350610a24836109c0565b8060005b83811015610a55578151610a3c88826109df565b9750610a47836109f7565b925050600181019050610a28565b5085935050505092915050565b6000604082019050610a7760008301856107bc565b8181036020830152610a898184610a04565b90509392505050565b600080fd5b6000601f19601f8301169050919050565b610ab182610a97565b810181811067ffffffffffffffff82111715610ad057610acf610946565b5b80604052505050565b6000610ae3610699565b9050610aef8282610aa8565b919050565b600067ffffffffffffffff821115610b0f57610b0e610946565b5b602082029050602081019050919050565b600080fd5b600081519050610b3481610715565b92915050565b6000610b4d610b4884610af4565b610ad9565b90508083825260208201905060208402830185811115610b7057610b6f610b20565b5b835b81811015610b995780610b858882610b25565b845260208401935050602081019050610b72565b5050509392505050565b600082601f830112610bb857610bb7610a92565b5b8151610bc8848260208601610b3a565b91505092915050565b600060208284031215610be757610be66106a3565b5b600082015167ffffffffffffffff811115610c0557610c046106a8565b5b610c1184828501610ba3565b91505092915050565b7f4e487b7100000000000000000000000000000000000000000000000000000000600052601160045260246000fd5b6000610c548261070b565b9150610c5f8361070b565b925082821015610c7257610c71610c1a565b5b828203905092915050565b600082825260208201905092915050565b7f4f776e61626c653a2063616c6c6572206973206e6f7420746865206f776e6572600082015250565b6000610cc4602083610c7d565b9150610ccf82610c8e565b602082019050919050565b60006020820190508181036000830152610cf381610cb7565b9050919050565b7f4f776e61626c653a206e6577206f776e657220697320746865207a65726f206160008201527f6464726573730000000000000000000000000000000000000000000000000000602082015250565b6000610d56602683610c7d565b9150610d6182610cfa565b604082019050919050565b60006020820190508181036000830152610d8581610d49565b905091905056fea264697066735822122063edc4bb0857d72da7239d98a96d3c515d258dfa370d1de567fd8a5a741ab61d64736f6c634300080a0033",
  "immutableReferences": {},
  "source": "//SPDX-License-Identifier: Unlicense\npragma solidity ^0.8.10;\n\nimport {Ownable} from \"@aave/core-v3/contracts/dependencies/openzeppelin/contracts/Ownable.sol\";\nimport {IERC20} from \"@aave/core-v3/contracts/dependencies/openzeppelin/contracts/IERC20.sol\";\nimport {SafeMath} from \"@aave/core-v3/contracts/dependencies/openzeppelin/contracts/SafeMath.sol\";\n\ninterface IUniswapV2Router {\n  function getAmountsOut(uint256 amountIn, address[] memory path) external view returns (uint256[] memory amounts);\n  function swapExactTokensForTokens(uint256 amountIn, uint256 amountOutMin, address[] calldata path, address to, uint256 deadline) external returns (uint256[] memory amounts);\n}\n\ninterface IUniswapV2Pair {\n  function token0() external view returns (address);\n  function token1() external view returns (address);\n  function swap(uint256 amount0Out,\tuint256 amount1Out,\taddress to,\tbytes calldata data) external;\n}\n\ncontract Arb is Ownable {\n\n\tusing SafeMath for uint256;\n\n\tfunction swap(address router, address _tokenIn, address _tokenOut, uint256 _amount) internal {\n\t\tIERC20(_tokenIn).approve(router, _amount);\n\t\taddress[] memory path;\n\t\tpath = new address[](2);\n\t\tpath[0] = _tokenIn;\n\t\tpath[1] = _tokenOut;\n\t\tuint deadline = block.timestamp + 300;\n\t\tIUniswapV2Router(router).swapExactTokensForTokens(_amount, 1, path, address(this), deadline);\n\t}\n\n\tfunction getAmountOutMin(address router, address _tokenIn, address _tokenOut, uint256 _amount) public view returns (uint256) {\n\t\taddress[] memory path;\n\t\tpath = new address[](2);\n\t\tpath[0] = _tokenIn;\n\t\tpath[1] = _tokenOut;\n\t\tuint256[] memory amountOutMins = IUniswapV2Router(router).getAmountsOut(_amount, path);\n\t\treturn amountOutMins[path.length -1];\n\t}\n\n\tfunction estimateDualDexTrade(address _router1, address _router2, address _token1, address _token2, uint256 _amount) external view returns (uint256) {\n\t\tuint256 amtBack1 = getAmountOutMin(_router1, _token1, _token2, _amount);\n\t\tuint256 amtBack2 = getAmountOutMin(_router2, _token2, _token1, amtBack1);\n\t\treturn amtBack2;\n\t}\n\t\n\tfunction dualDexTrade(address _router1, address _router2, address _token1, address _token2, uint256 _amount) internal onlyOwner {\n\t\tuint startBalance = IERC20(_token1).balanceOf(address(this)); // token1 start balance\n\t\tuint token2InitialBalance = IERC20(_token2).balanceOf(address(this)); // token2 start balance\n\t\tswap(_router1, _token1, _token2, _amount); // swap token1 for token2 for specified amount\n\n\t\tuint token2Balance = IERC20(_token2).balanceOf(address(this)); // token2 balance after swap\n\t\tuint tradeableAmount = token2Balance.sub(token2InitialBalance); // amount of token2 that can be traded\n\t\tswap(_router2, _token2, _token1, tradeableAmount); // swap token2 for token1 for tradeable amount\n\n\t\tuint endBalance = IERC20(_token1).balanceOf(address(this)); // token1 end balance\n\t\trequire(endBalance > startBalance, \"Trade Reverted, No Profit Made\"); \n\t}\n\n\tfunction estimateTriDexTrade(address _router1, address _router2, address _router3, address _token1, address _token2, address _token3, uint256 _amount) external view returns (uint256) {\n\t\tuint amtBack1 = getAmountOutMin(_router1, _token1, _token2, _amount);\n\t\tuint amtBack2 = getAmountOutMin(_router2, _token2, _token3, amtBack1);\n\t\tuint amtBack3 = getAmountOutMin(_router3, _token3, _token1, amtBack2);\n\t\treturn amtBack3;\n\t}\n\n\tfunction triDexTrade(address _router1, address _router2, address _router3, address _token1, address _token2, address _token3, uint256 _amount) internal onlyOwner {\n\t\tuint startBalance = IERC20(_token1).balanceOf(address(this)); // token1 start balance\n\t\tuint token2InitialBalance = IERC20(_token2).balanceOf(address(this)); // token2 start balance\n\t\tuint token3InitialBalance = IERC20(_token3).balanceOf(address(this)); // token3 start balance\n\t\n\t\tswap(_router1, _token1, _token2, _amount); // swap token1 for token2 for specified amount\n\n\t\tuint token2Balance = IERC20(_token2).balanceOf(address(this)); // token2 balance after swap\n\t\tuint tradeableAmount = token2Balance.sub(token2InitialBalance); // amount of token2 that can be traded\n\t\tswap(_router2, _token3, _token2, tradeableAmount); // swap token2 for token3 for tradeable amount\n\n\t\tuint token3Balance = IERC20(_token3).balanceOf(address(this)); // token3 balance after swap\n\t\tuint tradeableAmountLast = token3Balance.sub(token3InitialBalance); // amount of token3 that can be traded\n\t\tswap(_router3, _token3, _token1, tradeableAmountLast); // swap token3 for token1 for tradeable amount\n\n\t\tuint endBalance = IERC20(_token1).balanceOf(address(this)); // token1 end balance\n\t\trequire(endBalance > startBalance, \"Trade Reverted, No Profit Made\"); \n\t}\n}\n",
  "sourcePath": "/Users/vasilis/Projects/flashSwaps/flashloan-swaps/contracts/Arb.sol",
  "compiler": {
    "name": "solc",
    "version": "0.8.10+commit.fc410830.Emscripten.clang"
  },
  "schemaVersion": "3.4.10",
  "updatedAt": "2022-11-22T13:47:44.989Z",
  "devdoc": {
    "kind": "dev",
    "methods": {
      "owner()": {
        "details": "Returns the address of the current owner."
      },
      "renounceOwnership()": {
        "details": "Leaves the contract without owner. It will not be possible to call `onlyOwner` functions anymore. Can only be called by the current owner. NOTE: Renouncing ownership will leave the contract without an owner, thereby removing any functionality that is only available to the owner."
      },
      "transferOwnership(address)": {
        "details": "Transfers ownership of the contract to a new account (`newOwner`). Can only be called by the current owner."
      }
    },
    "version": 1
  },
  "userdoc": {
    "kind": "user",
    "methods": {},
    "version": 1
  }
}