{
  "contractName": "Arb",
  "abi": [
    {
      "anonymous": false,
      "inputs": [
        {
          "indexed": true,
          "internalType": "address",
          "name": "previousOwner",
          "type": "address"
        },
        {
          "indexed": true,
          "internalType": "address",
          "name": "newOwner",
          "type": "address"
        }
      ],
      "name": "OwnershipTransferred",
      "type": "event"
    },
    {
      "inputs": [],
      "name": "owner",
      "outputs": [
        {
          "internalType": "address",
          "name": "",
          "type": "address"
        }
      ],
      "stateMutability": "view",
      "type": "function"
    },
    {
      "inputs": [],
      "name": "renounceOwnership",
      "outputs": [],
      "stateMutability": "nonpayable",
      "type": "function"
    },
    {
      "inputs": [
        {
          "internalType": "address",
          "name": "newOwner",
          "type": "address"
        }
      ],
      "name": "transferOwnership",
      "outputs": [],
      "stateMutability": "nonpayable",
      "type": "function"
    },
    {
      "inputs": [
        {
          "internalType": "address",
          "name": "router",
          "type": "address"
        },
        {
          "internalType": "address",
          "name": "_tokenIn",
          "type": "address"
        },
        {
          "internalType": "address",
          "name": "_tokenOut",
          "type": "address"
        },
        {
          "internalType": "uint256",
          "name": "_amount",
          "type": "uint256"
        }
      ],
      "name": "getAmountOutMin",
      "outputs": [
        {
          "internalType": "uint256",
          "name": "",
          "type": "uint256"
        }
      ],
      "stateMutability": "view",
      "type": "function"
    },
    {
      "inputs": [
        {
          "internalType": "address",
          "name": "_router1",
          "type": "address"
        },
        {
          "internalType": "address",
          "name": "_router2",
          "type": "address"
        },
        {
          "internalType": "address",
          "name": "_token1",
          "type": "address"
        },
        {
          "internalType": "address",
          "name": "_token2",
          "type": "address"
        },
        {
          "internalType": "uint256",
          "name": "_amount",
          "type": "uint256"
        }
      ],
      "name": "estimateDualDexTrade",
      "outputs": [
        {
          "internalType": "uint256",
          "name": "",
          "type": "uint256"
        }
      ],
      "stateMutability": "view",
      "type": "function"
    }
  ],
  "bytecode": "0x608060405234801561001057600080fd5b5060006100216100c460201b60201c565b9050806000806101000a81548173ffffffffffffffffffffffffffffffffffffffff021916908373ffffffffffffffffffffffffffffffffffffffff1602179055508073ffffffffffffffffffffffffffffffffffffffff16600073ffffffffffffffffffffffffffffffffffffffff167f8be0079c531659141344cd1fd0a4f28419497f9722a3daafe3b4186f6b6457e060405160405180910390a3506100cc565b600033905090565b610ca3806100db6000396000f3fe608060405234801561001057600080fd5b50600436106100575760003560e01c8063068e7ca11461005c57806343cf6f241461008c578063715018a6146100bc5780638da5cb5b146100c6578063f2fde38b146100e4575b600080fd5b610076600480360381019061007191906106c4565b610100565b604051610083919061074e565b60405180910390f35b6100a660048036038101906100a19190610769565b61012f565b6040516100b3919061074e565b60405180910390f35b6100c46102d6565b005b6100ce610429565b6040516100db91906107df565b60405180910390f35b6100fe60048036038101906100f991906107fa565b610452565b005b60008061010f8786868661012f565b9050600061011f8786888561012f565b9050809250505095945050505050565b60006060600267ffffffffffffffff81111561014e5761014d610827565b5b60405190808252806020026020018201604052801561017c5781602001602082028036833780820191505090505b509050848160008151811061019457610193610856565b5b602002602001019073ffffffffffffffffffffffffffffffffffffffff16908173ffffffffffffffffffffffffffffffffffffffff168152505083816001815181106101e3576101e2610856565b5b602002602001019073ffffffffffffffffffffffffffffffffffffffff16908173ffffffffffffffffffffffffffffffffffffffff168152505060008673ffffffffffffffffffffffffffffffffffffffff1663d06ca61f85846040518363ffffffff1660e01b815260040161025a929190610943565b600060405180830381865afa158015610277573d6000803e3d6000fd5b505050506040513d6000823e3d601f19601f820116820180604052508101906102a09190610ab2565b905080600183516102b19190610b2a565b815181106102c2576102c1610856565b5b602002602001015192505050949350505050565b6102de610614565b73ffffffffffffffffffffffffffffffffffffffff1660008054906101000a900473ffffffffffffffffffffffffffffffffffffffff1673ffffffffffffffffffffffffffffffffffffffff161461036b576040517f08c379a000000000000000000000000000000000000000000000000000000000815260040161036290610bbb565b60405180910390fd5b600073ffffffffffffffffffffffffffffffffffffffff1660008054906101000a900473ffffffffffffffffffffffffffffffffffffffff1673ffffffffffffffffffffffffffffffffffffffff167f8be0079c531659141344cd1fd0a4f28419497f9722a3daafe3b4186f6b6457e060405160405180910390a360008060006101000a81548173ffffffffffffffffffffffffffffffffffffffff021916908373ffffffffffffffffffffffffffffffffffffffff160217905550565b60008060009054906101000a900473ffffffffffffffffffffffffffffffffffffffff16905090565b61045a610614565b73ffffffffffffffffffffffffffffffffffffffff1660008054906101000a900473ffffffffffffffffffffffffffffffffffffffff1673ffffffffffffffffffffffffffffffffffffffff16146104e7576040517f08c379a00000000000000000000000000000000000000000000000000000000081526004016104de90610bbb565b60405180910390fd5b600073ffffffffffffffffffffffffffffffffffffffff168173ffffffffffffffffffffffffffffffffffffffff161415610557576040517f08c379a000000000000000000000000000000000000000000000000000000000815260040161054e90610c4d565b60405180910390fd5b8073ffffffffffffffffffffffffffffffffffffffff1660008054906101000a900473ffffffffffffffffffffffffffffffffffffffff1673ffffffffffffffffffffffffffffffffffffffff167f8be0079c531659141344cd1fd0a4f28419497f9722a3daafe3b4186f6b6457e060405160405180910390a3806000806101000a81548173ffffffffffffffffffffffffffffffffffffffff021916908373ffffffffffffffffffffffffffffffffffffffff16021790555050565b600033905090565b6000604051905090565b600080fd5b600080fd5b600073ffffffffffffffffffffffffffffffffffffffff82169050919050565b600061065b82610630565b9050919050565b61066b81610650565b811461067657600080fd5b50565b60008135905061068881610662565b92915050565b6000819050919050565b6106a18161068e565b81146106ac57600080fd5b50565b6000813590506106be81610698565b92915050565b600080600080600060a086880312156106e0576106df610626565b5b60006106ee88828901610679565b95505060206106ff88828901610679565b945050604061071088828901610679565b935050606061072188828901610679565b9250506080610732888289016106af565b9150509295509295909350565b6107488161068e565b82525050565b6000602082019050610763600083018461073f565b92915050565b6000806000806080858703121561078357610782610626565b5b600061079187828801610679565b94505060206107a287828801610679565b93505060406107b387828801610679565b92505060606107c4878288016106af565b91505092959194509250565b6107d981610650565b82525050565b60006020820190506107f460008301846107d0565b92915050565b6000602082840312156108105761080f610626565b5b600061081e84828501610679565b91505092915050565b7f4e487b7100000000000000000000000000000000000000000000000000000000600052604160045260246000fd5b7f4e487b7100000000000000000000000000000000000000000000000000000000600052603260045260246000fd5b600081519050919050565b600082825260208201905092915050565b6000819050602082019050919050565b6108ba81610650565b82525050565b60006108cc83836108b1565b60208301905092915050565b6000602082019050919050565b60006108f082610885565b6108fa8185610890565b9350610905836108a1565b8060005b8381101561093657815161091d88826108c0565b9750610928836108d8565b925050600181019050610909565b5085935050505092915050565b6000604082019050610958600083018561073f565b818103602083015261096a81846108e5565b90509392505050565b600080fd5b6000601f19601f8301169050919050565b61099282610978565b810181811067ffffffffffffffff821117156109b1576109b0610827565b5b80604052505050565b60006109c461061c565b90506109d08282610989565b919050565b600067ffffffffffffffff8211156109f0576109ef610827565b5b602082029050602081019050919050565b600080fd5b600081519050610a1581610698565b92915050565b6000610a2e610a29846109d5565b6109ba565b90508083825260208201905060208402830185811115610a5157610a50610a01565b5b835b81811015610a7a5780610a668882610a06565b845260208401935050602081019050610a53565b5050509392505050565b600082601f830112610a9957610a98610973565b5b8151610aa9848260208601610a1b565b91505092915050565b600060208284031215610ac857610ac7610626565b5b600082015167ffffffffffffffff811115610ae657610ae561062b565b5b610af284828501610a84565b91505092915050565b7f4e487b7100000000000000000000000000000000000000000000000000000000600052601160045260246000fd5b6000610b358261068e565b9150610b408361068e565b925082821015610b5357610b52610afb565b5b828203905092915050565b600082825260208201905092915050565b7f4f776e61626c653a2063616c6c6572206973206e6f7420746865206f776e6572600082015250565b6000610ba5602083610b5e565b9150610bb082610b6f565b602082019050919050565b60006020820190508181036000830152610bd481610b98565b9050919050565b7f4f776e61626c653a206e6577206f776e657220697320746865207a65726f206160008201527f6464726573730000000000000000000000000000000000000000000000000000602082015250565b6000610c37602683610b5e565b9150610c4282610bdb565b604082019050919050565b60006020820190508181036000830152610c6681610c2a565b905091905056fea264697066735822122014e0c6ffe181b4a269cbd50c42362f3b24587f11b2a3846e06ed5a73aa17548c64736f6c634300080a0033",
  "immutableReferences": {},
  "source": "//SPDX-License-Identifier: Unlicense\npragma solidity ^0.8.10;\n\nimport {Ownable} from \"@aave/core-v3/contracts/dependencies/openzeppelin/contracts/Ownable.sol\";\nimport {IERC20} from \"@aave/core-v3/contracts/dependencies/openzeppelin/contracts/IERC20.sol\";\nimport {SafeMath} from \"@aave/core-v3/contracts/dependencies/openzeppelin/contracts/SafeMath.sol\";\n\ninterface IUniswapV2Router {\n  function getAmountsOut(uint256 amountIn, address[] memory path) external view returns (uint256[] memory amounts);\n  function swapExactTokensForTokens(uint256 amountIn, uint256 amountOutMin, address[] calldata path, address to, uint256 deadline) external returns (uint256[] memory amounts);\n}\n\ninterface IUniswapV2Pair {\n  function token0() external view returns (address);\n  function token1() external view returns (address);\n  function swap(uint256 amount0Out,\tuint256 amount1Out,\taddress to,\tbytes calldata data) external;\n}\n\ncontract Arb is Ownable {\n\n\tusing SafeMath for uint256;\n\n\tfunction swap(address router, address _tokenIn, address _tokenOut, uint256 _amount) internal {\n\t\tIERC20(_tokenIn).approve(router, _amount);\n\t\taddress[] memory path;\n\t\tpath = new address[](2);\n\t\tpath[0] = _tokenIn;\n\t\tpath[1] = _tokenOut;\n\t\tuint deadline = block.timestamp + 300;\n\t\tIUniswapV2Router(router).swapExactTokensForTokens(_amount, 1, path, address(this), deadline);\n\t}\n\n\tfunction getAmountOutMin(address router, address _tokenIn, address _tokenOut, uint256 _amount) public view returns (uint256) {\n\t\taddress[] memory path;\n\t\tpath = new address[](2);\n\t\tpath[0] = _tokenIn;\n\t\tpath[1] = _tokenOut;\n\t\tuint256[] memory amountOutMins = IUniswapV2Router(router).getAmountsOut(_amount, path);\n\t\treturn amountOutMins[path.length -1];\n\t}\n\n\tfunction estimateDualDexTrade(address _router1, address _router2, address _token1, address _token2, uint256 _amount) external view returns (uint256) {\n\t\tuint256 amtBack1 = getAmountOutMin(_router1, _token1, _token2, _amount);\n\t\tuint256 amtBack2 = getAmountOutMin(_router2, _token2, _token1, amtBack1);\n\t\treturn amtBack2;\n\t}\n\t\n\tfunction dualDexTrade(address _router1, address _router2, address _token1, address _token2, uint256 _amount) internal onlyOwner {\n\t\tuint startBalance = IERC20(_token1).balanceOf(address(this));\n\t\tuint token2InitialBalance = IERC20(_token2).balanceOf(address(this));\n\t\tswap(_router1,_token1, _token2,_amount);\n\t\tuint token2Balance = IERC20(_token2).balanceOf(address(this));\n\t\tuint tradeableAmount = token2Balance.sub(token2InitialBalance);\n\t\tswap(_router2,_token2, _token1,tradeableAmount);\n\t\tuint endBalance = IERC20(_token1).balanceOf(address(this));\n\t\trequire(endBalance > startBalance, \"Trade Reverted, No Profit Made\");\n\t}\n}\n",
  "sourcePath": "/Users/vasilis/Projects/flashSwaps/flashloan-swaps/contracts/Arb.sol",
  "compiler": {
    "name": "solc",
    "version": "0.8.10+commit.fc410830.Emscripten.clang"
  },
  "schemaVersion": "3.4.10",
  "updatedAt": "2022-11-21T14:52:25.864Z",
  "devdoc": {
    "kind": "dev",
    "methods": {
      "owner()": {
        "details": "Returns the address of the current owner."
      },
      "renounceOwnership()": {
        "details": "Leaves the contract without owner. It will not be possible to call `onlyOwner` functions anymore. Can only be called by the current owner. NOTE: Renouncing ownership will leave the contract without an owner, thereby removing any functionality that is only available to the owner."
      },
      "transferOwnership(address)": {
        "details": "Transfers ownership of the contract to a new account (`newOwner`). Can only be called by the current owner."
      }
    },
    "version": 1
  },
  "userdoc": {
    "kind": "user",
    "methods": {},
    "version": 1
  }
}