{
  "contractName": "FlashLoan",
  "abi": [
    {
      "inputs": [
        {
          "internalType": "address",
          "name": "_addressProvider",
          "type": "address"
        }
      ],
      "stateMutability": "nonpayable",
      "type": "constructor"
    },
    {
      "anonymous": false,
      "inputs": [
        {
          "indexed": true,
          "internalType": "address",
          "name": "previousOwner",
          "type": "address"
        },
        {
          "indexed": true,
          "internalType": "address",
          "name": "newOwner",
          "type": "address"
        }
      ],
      "name": "OwnershipTransferred",
      "type": "event"
    },
    {
      "inputs": [],
      "name": "ADDRESSES_PROVIDER",
      "outputs": [
        {
          "internalType": "contract IPoolAddressesProvider",
          "name": "",
          "type": "address"
        }
      ],
      "stateMutability": "view",
      "type": "function",
      "constant": true
    },
    {
      "inputs": [],
      "name": "POOL",
      "outputs": [
        {
          "internalType": "contract IPool",
          "name": "",
          "type": "address"
        }
      ],
      "stateMutability": "view",
      "type": "function",
      "constant": true
    },
    {
      "inputs": [
        {
          "internalType": "address",
          "name": "_router1",
          "type": "address"
        },
        {
          "internalType": "address",
          "name": "_router2",
          "type": "address"
        },
        {
          "internalType": "address",
          "name": "_token1",
          "type": "address"
        },
        {
          "internalType": "address",
          "name": "_token2",
          "type": "address"
        },
        {
          "internalType": "uint256",
          "name": "_amount",
          "type": "uint256"
        }
      ],
      "name": "estimateDualDexTrade",
      "outputs": [
        {
          "internalType": "uint256",
          "name": "",
          "type": "uint256"
        }
      ],
      "stateMutability": "view",
      "type": "function",
      "constant": true
    },
    {
      "inputs": [
        {
          "internalType": "address",
          "name": "router",
          "type": "address"
        },
        {
          "internalType": "address",
          "name": "_tokenIn",
          "type": "address"
        },
        {
          "internalType": "address",
          "name": "_tokenOut",
          "type": "address"
        },
        {
          "internalType": "uint256",
          "name": "_amount",
          "type": "uint256"
        }
      ],
      "name": "getAmountOutMin",
      "outputs": [
        {
          "internalType": "uint256",
          "name": "",
          "type": "uint256"
        }
      ],
      "stateMutability": "view",
      "type": "function",
      "constant": true
    },
    {
      "inputs": [],
      "name": "owner",
      "outputs": [
        {
          "internalType": "address",
          "name": "",
          "type": "address"
        }
      ],
      "stateMutability": "view",
      "type": "function",
      "constant": true
    },
    {
      "inputs": [],
      "name": "renounceOwnership",
      "outputs": [],
      "stateMutability": "nonpayable",
      "type": "function"
    },
    {
      "inputs": [
        {
          "internalType": "address",
          "name": "newOwner",
          "type": "address"
        }
      ],
      "name": "transferOwnership",
      "outputs": [],
      "stateMutability": "nonpayable",
      "type": "function"
    },
    {
      "stateMutability": "payable",
      "type": "receive",
      "payable": true
    },
    {
      "inputs": [
        {
          "internalType": "address",
          "name": "asset",
          "type": "address"
        },
        {
          "internalType": "uint256",
          "name": "amount",
          "type": "uint256"
        },
        {
          "internalType": "uint256",
          "name": "premium",
          "type": "uint256"
        },
        {
          "internalType": "address",
          "name": "initiator",
          "type": "address"
        },
        {
          "internalType": "bytes",
          "name": "params",
          "type": "bytes"
        }
      ],
      "name": "executeOperation",
      "outputs": [
        {
          "internalType": "bool",
          "name": "",
          "type": "bool"
        }
      ],
      "stateMutability": "nonpayable",
      "type": "function"
    },
    {
      "inputs": [
        {
          "internalType": "address",
          "name": "_asset",
          "type": "address"
        },
        {
          "internalType": "uint256",
          "name": "_amount",
          "type": "uint256"
        },
        {
          "internalType": "address[]",
          "name": "_routesPair",
          "type": "address[]"
        },
        {
          "internalType": "address[]",
          "name": "_swappingPair",
          "type": "address[]"
        }
      ],
      "name": "requestFlashLoan",
      "outputs": [],
      "stateMutability": "nonpayable",
      "type": "function"
    },
    {
      "inputs": [
        {
          "internalType": "address",
          "name": "_tokenContractAddress",
          "type": "address"
        }
      ],
      "name": "getTokenBalance",
      "outputs": [
        {
          "internalType": "uint256",
          "name": "",
          "type": "uint256"
        }
      ],
      "stateMutability": "view",
      "type": "function",
      "constant": true
    },
    {
      "inputs": [],
      "name": "recoverEth",
      "outputs": [],
      "stateMutability": "nonpayable",
      "type": "function"
    },
    {
      "inputs": [
        {
          "internalType": "address",
          "name": "tokenAddress",
          "type": "address"
        }
      ],
      "name": "recoverTokens",
      "outputs": [],
      "stateMutability": "nonpayable",
      "type": "function"
    }
  ],
  "bytecode": "0x60c06040523480156200001157600080fd5b50604051620029b0380380620029b083398181016040528101906200003791906200023b565b808073ffffffffffffffffffffffffffffffffffffffff1660808173ffffffffffffffffffffffffffffffffffffffff16815250508073ffffffffffffffffffffffffffffffffffffffff1663026b1d5f6040518163ffffffff1660e01b8152600401602060405180830381865afa158015620000b8573d6000803e3d6000fd5b505050506040513d601f19601f82011682018060405250810190620000de91906200023b565b73ffffffffffffffffffffffffffffffffffffffff1660a08173ffffffffffffffffffffffffffffffffffffffff168152505050600062000124620001c960201b60201c565b9050806000806101000a81548173ffffffffffffffffffffffffffffffffffffffff021916908373ffffffffffffffffffffffffffffffffffffffff1602179055508073ffffffffffffffffffffffffffffffffffffffff16600073ffffffffffffffffffffffffffffffffffffffff167f8be0079c531659141344cd1fd0a4f28419497f9722a3daafe3b4186f6b6457e060405160405180910390a350506200026d565b600033905090565b600080fd5b600073ffffffffffffffffffffffffffffffffffffffff82169050919050565b60006200020382620001d6565b9050919050565b6200021581620001f6565b81146200022157600080fd5b50565b60008151905062000235816200020a565b92915050565b600060208284031215620002545762000253620001d1565b5b6000620002648482850162000224565b91505092915050565b60805160a051612701620002af600039600081816104c201528181610846015281816109c501528181610a740152610e94015260006102d701526127016000f3fe6080604052600436106100ab5760003560e01c806343cf6f241161006457806343cf6f24146101eb578063715018a6146102285780637535d2461461023f5780638da5cb5b1461026a578063bcdb446b14610295578063f2fde38b146102ac576100b2565b80630542975c146100b7578063068e7ca1146100e257806316114acd1461011f5780631b11d0ff146101485780632dc69ff3146101855780633aecd0e3146101ae576100b2565b366100b257005b600080fd5b3480156100c357600080fd5b506100cc6102d5565b6040516100d99190611754565b60405180910390f35b3480156100ee57600080fd5b50610109600480360381019061010491906117f7565b6102f9565b6040516101169190611881565b60405180910390f35b34801561012b57600080fd5b506101466004803603810190610141919061189c565b610328565b005b34801561015457600080fd5b5061016f600480360381019061016a919061192e565b6104be565b60405161017c91906119e3565b60405180910390f35b34801561019157600080fd5b506101ac60048036038101906101a79190611b4d565b610916565b005b3480156101ba57600080fd5b506101d560048036038101906101d0919061189c565b610b10565b6040516101e29190611881565b60405180910390f35b3480156101f757600080fd5b50610212600480360381019061020d9190611bec565b610b98565b60405161021f9190611881565b60405180910390f35b34801561023457600080fd5b5061023d610d3f565b005b34801561024b57600080fd5b50610254610e92565b6040516102619190611c74565b60405180910390f35b34801561027657600080fd5b5061027f610eb6565b60405161028c9190611c9e565b60405180910390f35b3480156102a157600080fd5b506102aa610edf565b005b3480156102b857600080fd5b506102d360048036038101906102ce919061189c565b610fbd565b005b7f000000000000000000000000000000000000000000000000000000000000000081565b60008061030887868686610b98565b9050600061031887868885610b98565b9050809250505095945050505050565b61033061117f565b73ffffffffffffffffffffffffffffffffffffffff1660008054906101000a900473ffffffffffffffffffffffffffffffffffffffff1673ffffffffffffffffffffffffffffffffffffffff16146103bd576040517f08c379a00000000000000000000000000000000000000000000000000000000081526004016103b490611d16565b60405180910390fd5b60008190508073ffffffffffffffffffffffffffffffffffffffff1663a9059cbb338373ffffffffffffffffffffffffffffffffffffffff166370a08231306040518263ffffffff1660e01b81526004016104189190611c9e565b602060405180830381865afa158015610435573d6000803e3d6000fd5b505050506040513d601f19601f820116820180604052508101906104599190611d4b565b6040518363ffffffff1660e01b8152600401610476929190611d78565b6020604051808303816000875af1158015610495573d6000803e3d6000fd5b505050506040513d601f19601f820116820180604052508101906104b99190611dcd565b505050565b60007f000000000000000000000000000000000000000000000000000000000000000073ffffffffffffffffffffffffffffffffffffffff163373ffffffffffffffffffffffffffffffffffffffff161461054e576040517f08c379a000000000000000000000000000000000000000000000000000000000815260040161054590611e6c565b60405180910390fd5b8673ffffffffffffffffffffffffffffffffffffffff166370a08231306040518263ffffffff1660e01b81526004016105879190611c9e565b602060405180830381865afa1580156105a4573d6000803e3d6000fd5b505050506040513d601f19601f820116820180604052508101906105c89190611d4b565b86111561060a576040517f08c379a000000000000000000000000000000000000000000000000000000000815260040161060190611ed8565b60405180910390fd5b60008773ffffffffffffffffffffffffffffffffffffffff166370a08231306040518263ffffffff1660e01b81526004016106459190611c9e565b602060405180830381865afa158015610662573d6000803e3d6000fd5b505050506040513d601f19601f820116820180604052508101906106869190611d4b565b116106c6576040517f08c379a00000000000000000000000000000000000000000000000000000000081526004016106bd90611f44565b60405180910390fd5b60008084848101906106d89190611f64565b91509150610755816000815181106106f3576106f2611fdc565b5b60200260200101518260018151811061070f5761070e611fdc565b5b60200260200101518460008151811061072b5761072a611fdc565b5b60200260200101518560018151811061074757610746611fdc565b5b60200260200101518c611187565b600061076a888a61149190919063ffffffff16565b9050808a73ffffffffffffffffffffffffffffffffffffffff166370a08231306040518263ffffffff1660e01b81526004016107a69190611c9e565b602060405180830381865afa1580156107c3573d6000803e3d6000fd5b505050506040513d601f19601f820116820180604052508101906107e79190611d4b565b1015610828576040517f08c379a000000000000000000000000000000000000000000000000000000000815260040161081f90612057565b60405180910390fd5b8973ffffffffffffffffffffffffffffffffffffffff1663095ea7b37f0000000000000000000000000000000000000000000000000000000000000000836040518363ffffffff1660e01b8152600401610883929190611d78565b6020604051808303816000875af11580156108a2573d6000803e3d6000fd5b505050506040513d601f19601f820116820180604052508101906108c69190611dcd565b610905576040517f08c379a00000000000000000000000000000000000000000000000000000000081526004016108fc906120c3565b60405180910390fd5b600193505050509695505050505050565b61091e61117f565b73ffffffffffffffffffffffffffffffffffffffff1660008054906101000a900473ffffffffffffffffffffffffffffffffffffffff1673ffffffffffffffffffffffffffffffffffffffff16146109ab576040517f08c379a00000000000000000000000000000000000000000000000000000000081526004016109a290611d16565b60405180910390fd5b600073ffffffffffffffffffffffffffffffffffffffff167f000000000000000000000000000000000000000000000000000000000000000073ffffffffffffffffffffffffffffffffffffffff161415610a3b576040517f08c379a0000000000000000000000000000000000000000000000000000000008152600401610a329061212f565b60405180910390fd5b60003090506000859050600085905060008486604051602001610a5f92919061220d565b604051602081830303815290604052905060007f000000000000000000000000000000000000000000000000000000000000000073ffffffffffffffffffffffffffffffffffffffff166342b0b77c86868686866040518663ffffffff1660e01b8152600401610ad39594939291906122e9565b600060405180830381600087803b158015610aed57600080fd5b505af1158015610b01573d6000803e3d6000fd5b50505050505050505050505050565b6000808273ffffffffffffffffffffffffffffffffffffffff166370a08231306040518263ffffffff1660e01b8152600401610b4c9190611c9e565b602060405180830381865afa158015610b69573d6000803e3d6000fd5b505050506040513d601f19601f82011682018060405250810190610b8d9190611d4b565b905080915050919050565b60006060600267ffffffffffffffff811115610bb757610bb6611a0f565b5b604051908082528060200260200182016040528015610be55781602001602082028036833780820191505090505b5090508481600081518110610bfd57610bfc611fdc565b5b602002602001019073ffffffffffffffffffffffffffffffffffffffff16908173ffffffffffffffffffffffffffffffffffffffff16815250508381600181518110610c4c57610c4b611fdc565b5b602002602001019073ffffffffffffffffffffffffffffffffffffffff16908173ffffffffffffffffffffffffffffffffffffffff168152505060008673ffffffffffffffffffffffffffffffffffffffff1663d06ca61f85846040518363ffffffff1660e01b8152600401610cc3929190612343565b600060405180830381865afa158015610ce0573d6000803e3d6000fd5b505050506040513d6000823e3d601f19601f82011682018060405250810190610d099190612436565b90508060018351610d1a91906124ae565b81518110610d2b57610d2a611fdc565b5b602002602001015192505050949350505050565b610d4761117f565b73ffffffffffffffffffffffffffffffffffffffff1660008054906101000a900473ffffffffffffffffffffffffffffffffffffffff1673ffffffffffffffffffffffffffffffffffffffff1614610dd4576040517f08c379a0000000000000000000000000000000000000000000000000000000008152600401610dcb90611d16565b60405180910390fd5b600073ffffffffffffffffffffffffffffffffffffffff1660008054906101000a900473ffffffffffffffffffffffffffffffffffffffff1673ffffffffffffffffffffffffffffffffffffffff167f8be0079c531659141344cd1fd0a4f28419497f9722a3daafe3b4186f6b6457e060405160405180910390a360008060006101000a81548173ffffffffffffffffffffffffffffffffffffffff021916908373ffffffffffffffffffffffffffffffffffffffff160217905550565b7f000000000000000000000000000000000000000000000000000000000000000081565b60008060009054906101000a900473ffffffffffffffffffffffffffffffffffffffff16905090565b610ee761117f565b73ffffffffffffffffffffffffffffffffffffffff1660008054906101000a900473ffffffffffffffffffffffffffffffffffffffff1673ffffffffffffffffffffffffffffffffffffffff1614610f74576040517f08c379a0000000000000000000000000000000000000000000000000000000008152600401610f6b90611d16565b60405180910390fd5b3373ffffffffffffffffffffffffffffffffffffffff166108fc479081150290604051600060405180830381858888f19350505050158015610fba573d6000803e3d6000fd5b50565b610fc561117f565b73ffffffffffffffffffffffffffffffffffffffff1660008054906101000a900473ffffffffffffffffffffffffffffffffffffffff1673ffffffffffffffffffffffffffffffffffffffff1614611052576040517f08c379a000000000000000000000000000000000000000000000000000000000815260040161104990611d16565b60405180910390fd5b600073ffffffffffffffffffffffffffffffffffffffff168173ffffffffffffffffffffffffffffffffffffffff1614156110c2576040517f08c379a00000000000000000000000000000000000000000000000000000000081526004016110b990612554565b60405180910390fd5b8073ffffffffffffffffffffffffffffffffffffffff1660008054906101000a900473ffffffffffffffffffffffffffffffffffffffff1673ffffffffffffffffffffffffffffffffffffffff167f8be0079c531659141344cd1fd0a4f28419497f9722a3daafe3b4186f6b6457e060405160405180910390a3806000806101000a81548173ffffffffffffffffffffffffffffffffffffffff021916908373ffffffffffffffffffffffffffffffffffffffff16021790555050565b600033905090565b61118f61117f565b73ffffffffffffffffffffffffffffffffffffffff1660008054906101000a900473ffffffffffffffffffffffffffffffffffffffff1673ffffffffffffffffffffffffffffffffffffffff161461121c576040517f08c379a000000000000000000000000000000000000000000000000000000000815260040161121390611d16565b60405180910390fd5b60008373ffffffffffffffffffffffffffffffffffffffff166370a08231306040518263ffffffff1660e01b81526004016112579190611c9e565b602060405180830381865afa158015611274573d6000803e3d6000fd5b505050506040513d601f19601f820116820180604052508101906112989190611d4b565b905060008373ffffffffffffffffffffffffffffffffffffffff166370a08231306040518263ffffffff1660e01b81526004016112d59190611c9e565b602060405180830381865afa1580156112f2573d6000803e3d6000fd5b505050506040513d601f19601f820116820180604052508101906113169190611d4b565b9050611324878686866114ab565b60008473ffffffffffffffffffffffffffffffffffffffff166370a08231306040518263ffffffff1660e01b815260040161135f9190611c9e565b602060405180830381865afa15801561137c573d6000803e3d6000fd5b505050506040513d601f19601f820116820180604052508101906113a09190611d4b565b905060006113b783836116bb90919063ffffffff16565b90506113c5888789846114ab565b60008773ffffffffffffffffffffffffffffffffffffffff166370a08231306040518263ffffffff1660e01b81526004016114009190611c9e565b602060405180830381865afa15801561141d573d6000803e3d6000fd5b505050506040513d601f19601f820116820180604052508101906114419190611d4b565b9050848111611485576040517f08c379a000000000000000000000000000000000000000000000000000000000815260040161147c906125c0565b60405180910390fd5b50505050505050505050565b60008282840191508110156114a557600080fd5b92915050565b8273ffffffffffffffffffffffffffffffffffffffff1663095ea7b385836040518363ffffffff1660e01b81526004016114e6929190611d78565b6020604051808303816000875af1158015611505573d6000803e3d6000fd5b505050506040513d601f19601f820116820180604052508101906115299190611dcd565b506060600267ffffffffffffffff81111561154757611546611a0f565b5b6040519080825280602002602001820160405280156115755781602001602082028036833780820191505090505b509050838160008151811061158d5761158c611fdc565b5b602002602001019073ffffffffffffffffffffffffffffffffffffffff16908173ffffffffffffffffffffffffffffffffffffffff168152505082816001815181106115dc576115db611fdc565b5b602002602001019073ffffffffffffffffffffffffffffffffffffffff16908173ffffffffffffffffffffffffffffffffffffffff1681525050600061012c4261162691906125e0565b90508573ffffffffffffffffffffffffffffffffffffffff166338ed17398460018530866040518663ffffffff1660e01b815260040161166a959493929190612671565b6000604051808303816000875af1158015611689573d6000803e3d6000fd5b505050506040513d6000823e3d601f19601f820116820180604052508101906116b29190612436565b50505050505050565b60008282840391508111156116cf57600080fd5b92915050565b600073ffffffffffffffffffffffffffffffffffffffff82169050919050565b6000819050919050565b600061171a611715611710846116d5565b6116f5565b6116d5565b9050919050565b600061172c826116ff565b9050919050565b600061173e82611721565b9050919050565b61174e81611733565b82525050565b60006020820190506117696000830184611745565b92915050565b6000604051905090565b600080fd5b600080fd5b600061178e826116d5565b9050919050565b61179e81611783565b81146117a957600080fd5b50565b6000813590506117bb81611795565b92915050565b6000819050919050565b6117d4816117c1565b81146117df57600080fd5b50565b6000813590506117f1816117cb565b92915050565b600080600080600060a0868803121561181357611812611779565b5b6000611821888289016117ac565b9550506020611832888289016117ac565b9450506040611843888289016117ac565b9350506060611854888289016117ac565b9250506080611865888289016117e2565b9150509295509295909350565b61187b816117c1565b82525050565b60006020820190506118966000830184611872565b92915050565b6000602082840312156118b2576118b1611779565b5b60006118c0848285016117ac565b91505092915050565b600080fd5b600080fd5b600080fd5b60008083601f8401126118ee576118ed6118c9565b5b8235905067ffffffffffffffff81111561190b5761190a6118ce565b5b602083019150836001820283011115611927576119266118d3565b5b9250929050565b60008060008060008060a0878903121561194b5761194a611779565b5b600061195989828a016117ac565b965050602061196a89828a016117e2565b955050604061197b89828a016117e2565b945050606061198c89828a016117ac565b935050608087013567ffffffffffffffff8111156119ad576119ac61177e565b5b6119b989828a016118d8565b92509250509295509295509295565b60008115159050919050565b6119dd816119c8565b82525050565b60006020820190506119f860008301846119d4565b92915050565b6000601f19601f8301169050919050565b7f4e487b7100000000000000000000000000000000000000000000000000000000600052604160045260246000fd5b611a47826119fe565b810181811067ffffffffffffffff82111715611a6657611a65611a0f565b5b80604052505050565b6000611a7961176f565b9050611a858282611a3e565b919050565b600067ffffffffffffffff821115611aa557611aa4611a0f565b5b602082029050602081019050919050565b6000611ac9611ac484611a8a565b611a6f565b90508083825260208201905060208402830185811115611aec57611aeb6118d3565b5b835b81811015611b155780611b0188826117ac565b845260208401935050602081019050611aee565b5050509392505050565b600082601f830112611b3457611b336118c9565b5b8135611b44848260208601611ab6565b91505092915050565b60008060008060808587031215611b6757611b66611779565b5b6000611b75878288016117ac565b9450506020611b86878288016117e2565b935050604085013567ffffffffffffffff811115611ba757611ba661177e565b5b611bb387828801611b1f565b925050606085013567ffffffffffffffff811115611bd457611bd361177e565b5b611be087828801611b1f565b91505092959194509250565b60008060008060808587031215611c0657611c05611779565b5b6000611c14878288016117ac565b9450506020611c25878288016117ac565b9350506040611c36878288016117ac565b9250506060611c47878288016117e2565b91505092959194509250565b6000611c5e82611721565b9050919050565b611c6e81611c53565b82525050565b6000602082019050611c896000830184611c65565b92915050565b611c9881611783565b82525050565b6000602082019050611cb36000830184611c8f565b92915050565b600082825260208201905092915050565b7f4f776e61626c653a2063616c6c6572206973206e6f7420746865206f776e6572600082015250565b6000611d00602083611cb9565b9150611d0b82611cca565b602082019050919050565b60006020820190508181036000830152611d2f81611cf3565b9050919050565b600081519050611d45816117cb565b92915050565b600060208284031215611d6157611d60611779565b5b6000611d6f84828501611d36565b91505092915050565b6000604082019050611d8d6000830185611c8f565b611d9a6020830184611872565b9392505050565b611daa816119c8565b8114611db557600080fd5b50565b600081519050611dc781611da1565b92915050565b600060208284031215611de357611de2611779565b5b6000611df184828501611db8565b91505092915050565b7f546869732066756e6374696f6e2063616e206f6e6c792062652063616c6c656460008201527f20627920746865204161766520506f6f6c000000000000000000000000000000602082015250565b6000611e56603183611cb9565b9150611e6182611dfa565b604082019050919050565b60006020820190508181036000830152611e8581611e49565b9050919050565b7f496e76616c69642062616c616e636520666f722074686520636f6e7472616374600082015250565b6000611ec2602083611cb9565b9150611ecd82611e8c565b602082019050919050565b60006020820190508181036000830152611ef181611eb5565b9050919050565b7f5a65726f2062616c616e636520696e20636f6e74726163740000000000000000600082015250565b6000611f2e601883611cb9565b9150611f3982611ef8565b602082019050919050565b60006020820190508181036000830152611f5d81611f21565b9050919050565b60008060408385031215611f7b57611f7a611779565b5b600083013567ffffffffffffffff811115611f9957611f9861177e565b5b611fa585828601611b1f565b925050602083013567ffffffffffffffff811115611fc657611fc561177e565b5b611fd285828601611b1f565b9150509250929050565b7f4e487b7100000000000000000000000000000000000000000000000000000000600052603260045260246000fd5b7f4e6f7420656e6f75676820616d6f756e7420746f2072657475726e206c6f616e600082015250565b6000612041602083611cb9565b915061204c8261200b565b602082019050919050565b6000602082019050818103600083015261207081612034565b9050919050565b7f617070726f7665206661696c6564000000000000000000000000000000000000600082015250565b60006120ad600e83611cb9565b91506120b882612077565b602082019050919050565b600060208201905081810360008301526120dc816120a0565b9050919050565b7f504f4f4c20646f6573206e6f7420657869737421000000000000000000000000600082015250565b6000612119601483611cb9565b9150612124826120e3565b602082019050919050565b600060208201905081810360008301526121488161210c565b9050919050565b600081519050919050565b600082825260208201905092915050565b6000819050602082019050919050565b61218481611783565b82525050565b6000612196838361217b565b60208301905092915050565b6000602082019050919050565b60006121ba8261214f565b6121c4818561215a565b93506121cf8361216b565b8060005b838110156122005781516121e7888261218a565b97506121f2836121a2565b9250506001810190506121d3565b5085935050505092915050565b6000604082019050818103600083015261222781856121af565b9050818103602083015261223b81846121af565b90509392505050565b600081519050919050565b600082825260208201905092915050565b60005b8381101561227e578082015181840152602081019050612263565b8381111561228d576000848401525b50505050565b600061229e82612244565b6122a8818561224f565b93506122b8818560208601612260565b6122c1816119fe565b840191505092915050565b600061ffff82169050919050565b6122e3816122cc565b82525050565b600060a0820190506122fe6000830188611c8f565b61230b6020830187611c8f565b6123186040830186611872565b818103606083015261232a8185612293565b905061233960808301846122da565b9695505050505050565b60006040820190506123586000830185611872565b818103602083015261236a81846121af565b90509392505050565b600067ffffffffffffffff82111561238e5761238d611a0f565b5b602082029050602081019050919050565b60006123b26123ad84612373565b611a6f565b905080838252602082019050602084028301858111156123d5576123d46118d3565b5b835b818110156123fe57806123ea8882611d36565b8452602084019350506020810190506123d7565b5050509392505050565b600082601f83011261241d5761241c6118c9565b5b815161242d84826020860161239f565b91505092915050565b60006020828403121561244c5761244b611779565b5b600082015167ffffffffffffffff81111561246a5761246961177e565b5b61247684828501612408565b91505092915050565b7f4e487b7100000000000000000000000000000000000000000000000000000000600052601160045260246000fd5b60006124b9826117c1565b91506124c4836117c1565b9250828210156124d7576124d661247f565b5b828203905092915050565b7f4f776e61626c653a206e6577206f776e657220697320746865207a65726f206160008201527f6464726573730000000000000000000000000000000000000000000000000000602082015250565b600061253e602683611cb9565b9150612549826124e2565b604082019050919050565b6000602082019050818103600083015261256d81612531565b9050919050565b7f54726164652052657665727465642c204e6f2050726f666974204d6164650000600082015250565b60006125aa601e83611cb9565b91506125b582612574565b602082019050919050565b600060208201905081810360008301526125d98161259d565b9050919050565b60006125eb826117c1565b91506125f6836117c1565b9250827fffffffffffffffffffffffffffffffffffffffffffffffffffffffffffffffff0382111561262b5761262a61247f565b5b828201905092915050565b6000819050919050565b600061265b61265661265184612636565b6116f5565b6117c1565b9050919050565b61266b81612640565b82525050565b600060a0820190506126866000830188611872565b6126936020830187612662565b81810360408301526126a581866121af565b90506126b46060830185611c8f565b6126c16080830184611872565b969550505050505056fea26469706673582212201e99a9ae76deb6c97007040fd297423e27b7112dd159aa26f68086abc44ca77664736f6c634300080a0033",
  "immutableReferences": {
    "347": [
      {
        "length": 32,
        "start": 727
      }
    ],
    "351": [
      {
        "length": 32,
        "start": 1218
      },
      {
        "length": 32,
        "start": 2118
      },
      {
        "length": 32,
        "start": 2501
      },
      {
        "length": 32,
        "start": 2676
      },
      {
        "length": 32,
        "start": 3732
      }
    ]
  },
  "source": "// SPDX-License-Identifier: UNLICENSED\npragma solidity 0.8.10;\n\n// Uncomment this line to use console.log\n// import \"hardhat/console.sol\";\n\nimport {FlashLoanSimpleReceiverBase} from \"@aave/core-v3/contracts/flashloan/base/FlashLoanSimpleReceiverBase.sol\";\nimport {IPoolAddressesProvider} from \"@aave/core-v3/contracts/interfaces/IPoolAddressesProvider.sol\";\nimport {SafeMath} from \"@aave/core-v3/contracts/dependencies/openzeppelin/contracts/SafeMath.sol\";\nimport \"./Arb.sol\";\n\ncontract FlashLoan is FlashLoanSimpleReceiverBase, Arb {\n\n    using SafeMath for uint256;\n\n    constructor(address _addressProvider) FlashLoanSimpleReceiverBase(IPoolAddressesProvider(_addressProvider)) {\n    }\n\n    /**\n     * @notice Executes an operation after receiving the flash-borrowed asset\n     * @dev Ensure that the contract can return the debt + premium, e.g., has enough funds to repay and has approved the Pool to pull the total amount\n     * @param asset The address of the flash-borrowed asset\n     * @param amount The amount of the flash-borrowed asset\n     * @param premium The fee of the flash-borrowed asset\n     * @param initiator The address of the flashloan initiator\n     * @param params The byte-encoded params passed when initiating the flashloan\n     * @return True if the execution of the operation succeeds, false otherwise\n     */\n    function executeOperation(\n        address asset,\n        uint256 amount,\n        uint256 premium,\n        address initiator,\n        bytes calldata params\n    ) external override returns (bool) {\n        require(msg.sender == address(POOL), \"This function can only be called by the Aave Pool\");\n        require(amount <= IERC20(asset).balanceOf(address(this)), \"Invalid balance for the contract\");\n        require(IERC20(asset).balanceOf(address(this)) > 0, \"Zero balance in contract\");\n\n        // Your Arb logic goes here.\n        (address[] memory _swappingPair, address[] memory _routesPair) = abi.decode(params, (address[], address[]));\n        dualDexTrade(_routesPair[0], _routesPair[1], _swappingPair[0], _swappingPair[1], amount);\n\n        // Make sure to have this call at the end\n        uint256 amountOwed = amount.add(premium);\n        require(IERC20(asset).balanceOf(address(this)) >= amountOwed, \"Not enough amount to return loan\");\n        require(IERC20(asset).approve(address(POOL), amountOwed), \"approve failed\");\n        return true;\n    }\n\n\n    function requestFlashLoan(address _asset, uint256 _amount, address[] memory _routesPair, address[] memory _swappingPair) public onlyOwner {\n        require(address(POOL) != address(0), \"POOL does not exist!\");\n\n        address receiverAddress = address(this);\n        address asset = _asset;\n        uint256 amount = _amount;\n        bytes memory params = abi.encode(_swappingPair, _routesPair);\n        uint16 referralCode = 0;\n\n        /**\n         * @notice Allows smartcontracts to access the liquidity of the pool within one transaction,\n         * as long as the amount taken plus a fee is returned.\n         * @dev IMPORTANT There are security concerns for developers of flashloan receiver contracts that must be kept\n         * into consideration. For further details please visit https://developers.aave.com\n         * @param receiverAddress The address of the contract receiving the funds, implementing IFlashLoanSimpleReceiver interface\n         * @param asset The address of the asset being flash-borrowed\n         * @param amount The amount of the asset being flash-borrowed\n         * @param params Variadic packed params to pass to the receiver as extra information\n         * @param referralCode The code used to register the integrator originating the operation, for potential rewards.\n         *   0 if the action is executed directly by the user, without any middle-man\n         **/\n        POOL.flashLoanSimple(receiverAddress, asset, amount, params, referralCode);\n    }\n\n\n    function getTokenBalance (address _tokenContractAddress) external view returns (uint256) {\n\t\tuint balance = IERC20(_tokenContractAddress).balanceOf(address(this));\n\t\treturn balance;\n\t}\n\t\n\tfunction recoverEth() external onlyOwner {\n\t\tpayable(msg.sender).transfer(address(this).balance);\n\t}\n\n\tfunction recoverTokens(address tokenAddress) external onlyOwner {\n\t\tIERC20 token = IERC20(tokenAddress);\n\t\ttoken.transfer(msg.sender, token.balanceOf(address(this)));\n\t}\n\n\treceive() external payable {}\n}",
  "sourcePath": "/Users/vasilis/Projects/flashSwaps/flashloan-swaps/contracts/FlashLoan.sol",
  "compiler": {
    "name": "solc",
    "version": "0.8.10+commit.fc410830.Emscripten.clang"
  },
  "schemaVersion": "3.4.10",
  "updatedAt": "2022-11-21T14:52:46.999Z",
  "networkType": "ethereum",
  "devdoc": {
    "kind": "dev",
    "methods": {
      "executeOperation(address,uint256,uint256,address,bytes)": {
        "details": "Ensure that the contract can return the debt + premium, e.g., has enough funds to repay and has approved the Pool to pull the total amount",
        "params": {
          "amount": "The amount of the flash-borrowed asset",
          "asset": "The address of the flash-borrowed asset",
          "initiator": "The address of the flashloan initiator",
          "params": "The byte-encoded params passed when initiating the flashloan",
          "premium": "The fee of the flash-borrowed asset"
        },
        "returns": {
          "_0": "True if the execution of the operation succeeds, false otherwise"
        }
      },
      "owner()": {
        "details": "Returns the address of the current owner."
      },
      "renounceOwnership()": {
        "details": "Leaves the contract without owner. It will not be possible to call `onlyOwner` functions anymore. Can only be called by the current owner. NOTE: Renouncing ownership will leave the contract without an owner, thereby removing any functionality that is only available to the owner."
      },
      "transferOwnership(address)": {
        "details": "Transfers ownership of the contract to a new account (`newOwner`). Can only be called by the current owner."
      }
    },
    "version": 1
  },
  "userdoc": {
    "kind": "user",
    "methods": {
      "executeOperation(address,uint256,uint256,address,bytes)": {
        "notice": "Executes an operation after receiving the flash-borrowed asset"
      }
    },
    "version": 1
  }
}