{
  "contractName": "FlashLoan",
  "abi": [
    {
      "inputs": [
        {
          "internalType": "address",
          "name": "_addressProvider",
          "type": "address"
        }
      ],
      "stateMutability": "nonpayable",
      "type": "constructor"
    },
    {
      "anonymous": false,
      "inputs": [
        {
          "indexed": true,
          "internalType": "address",
          "name": "previousOwner",
          "type": "address"
        },
        {
          "indexed": true,
          "internalType": "address",
          "name": "newOwner",
          "type": "address"
        }
      ],
      "name": "OwnershipTransferred",
      "type": "event"
    },
    {
      "inputs": [],
      "name": "ADDRESSES_PROVIDER",
      "outputs": [
        {
          "internalType": "contract IPoolAddressesProvider",
          "name": "",
          "type": "address"
        }
      ],
      "stateMutability": "view",
      "type": "function",
      "constant": true
    },
    {
      "inputs": [],
      "name": "POOL",
      "outputs": [
        {
          "internalType": "contract IPool",
          "name": "",
          "type": "address"
        }
      ],
      "stateMutability": "view",
      "type": "function",
      "constant": true
    },
    {
      "inputs": [
        {
          "internalType": "address",
          "name": "_router1",
          "type": "address"
        },
        {
          "internalType": "address",
          "name": "_router2",
          "type": "address"
        },
        {
          "internalType": "address",
          "name": "_token1",
          "type": "address"
        },
        {
          "internalType": "address",
          "name": "_token2",
          "type": "address"
        },
        {
          "internalType": "uint256",
          "name": "_amount",
          "type": "uint256"
        }
      ],
      "name": "estimateDualDexTrade",
      "outputs": [
        {
          "internalType": "uint256",
          "name": "",
          "type": "uint256"
        }
      ],
      "stateMutability": "view",
      "type": "function",
      "constant": true
    },
    {
      "inputs": [
        {
          "internalType": "address",
          "name": "_router1",
          "type": "address"
        },
        {
          "internalType": "address",
          "name": "_router2",
          "type": "address"
        },
        {
          "internalType": "address",
          "name": "_router3",
          "type": "address"
        },
        {
          "internalType": "address",
          "name": "_token1",
          "type": "address"
        },
        {
          "internalType": "address",
          "name": "_token2",
          "type": "address"
        },
        {
          "internalType": "address",
          "name": "_token3",
          "type": "address"
        },
        {
          "internalType": "uint256",
          "name": "_amount",
          "type": "uint256"
        }
      ],
      "name": "estimateTriDexTrade",
      "outputs": [
        {
          "internalType": "uint256",
          "name": "",
          "type": "uint256"
        }
      ],
      "stateMutability": "view",
      "type": "function",
      "constant": true
    },
    {
      "inputs": [
        {
          "internalType": "address",
          "name": "router",
          "type": "address"
        },
        {
          "internalType": "address",
          "name": "_tokenIn",
          "type": "address"
        },
        {
          "internalType": "address",
          "name": "_tokenOut",
          "type": "address"
        },
        {
          "internalType": "uint256",
          "name": "_amount",
          "type": "uint256"
        }
      ],
      "name": "getAmountOutMin",
      "outputs": [
        {
          "internalType": "uint256",
          "name": "",
          "type": "uint256"
        }
      ],
      "stateMutability": "view",
      "type": "function",
      "constant": true
    },
    {
      "inputs": [],
      "name": "owner",
      "outputs": [
        {
          "internalType": "address",
          "name": "",
          "type": "address"
        }
      ],
      "stateMutability": "view",
      "type": "function",
      "constant": true
    },
    {
      "inputs": [],
      "name": "renounceOwnership",
      "outputs": [],
      "stateMutability": "nonpayable",
      "type": "function"
    },
    {
      "inputs": [
        {
          "internalType": "address",
          "name": "newOwner",
          "type": "address"
        }
      ],
      "name": "transferOwnership",
      "outputs": [],
      "stateMutability": "nonpayable",
      "type": "function"
    },
    {
      "stateMutability": "payable",
      "type": "receive",
      "payable": true
    },
    {
      "inputs": [
        {
          "internalType": "address",
          "name": "asset",
          "type": "address"
        },
        {
          "internalType": "uint256",
          "name": "amount",
          "type": "uint256"
        },
        {
          "internalType": "uint256",
          "name": "premium",
          "type": "uint256"
        },
        {
          "internalType": "address",
          "name": "initiator",
          "type": "address"
        },
        {
          "internalType": "bytes",
          "name": "params",
          "type": "bytes"
        }
      ],
      "name": "executeOperation",
      "outputs": [
        {
          "internalType": "bool",
          "name": "",
          "type": "bool"
        }
      ],
      "stateMutability": "nonpayable",
      "type": "function"
    },
    {
      "inputs": [
        {
          "internalType": "address",
          "name": "_asset",
          "type": "address"
        },
        {
          "internalType": "uint256",
          "name": "_amount",
          "type": "uint256"
        },
        {
          "internalType": "address[]",
          "name": "_routesPair",
          "type": "address[]"
        },
        {
          "internalType": "address[]",
          "name": "_swappingPair",
          "type": "address[]"
        }
      ],
      "name": "requestFlashLoan",
      "outputs": [],
      "stateMutability": "nonpayable",
      "type": "function"
    },
    {
      "inputs": [
        {
          "internalType": "address",
          "name": "_tokenContractAddress",
          "type": "address"
        }
      ],
      "name": "getTokenBalance",
      "outputs": [
        {
          "internalType": "uint256",
          "name": "",
          "type": "uint256"
        }
      ],
      "stateMutability": "view",
      "type": "function",
      "constant": true
    },
    {
      "inputs": [],
      "name": "recoverEth",
      "outputs": [],
      "stateMutability": "nonpayable",
      "type": "function"
    },
    {
      "inputs": [
        {
          "internalType": "address",
          "name": "tokenAddress",
          "type": "address"
        }
      ],
      "name": "recoverTokens",
      "outputs": [],
      "stateMutability": "nonpayable",
      "type": "function"
    }
  ],
  "bytecode": "0x60c06040523480156200001157600080fd5b5060405162002fe838038062002fe883398181016040528101906200003791906200023b565b808073ffffffffffffffffffffffffffffffffffffffff1660808173ffffffffffffffffffffffffffffffffffffffff16815250508073ffffffffffffffffffffffffffffffffffffffff1663026b1d5f6040518163ffffffff1660e01b8152600401602060405180830381865afa158015620000b8573d6000803e3d6000fd5b505050506040513d601f19601f82011682018060405250810190620000de91906200023b565b73ffffffffffffffffffffffffffffffffffffffff1660a08173ffffffffffffffffffffffffffffffffffffffff168152505050600062000124620001c960201b60201c565b9050806000806101000a81548173ffffffffffffffffffffffffffffffffffffffff021916908373ffffffffffffffffffffffffffffffffffffffff1602179055508073ffffffffffffffffffffffffffffffffffffffff16600073ffffffffffffffffffffffffffffffffffffffff167f8be0079c531659141344cd1fd0a4f28419497f9722a3daafe3b4186f6b6457e060405160405180910390a350506200026d565b600033905090565b600080fd5b600073ffffffffffffffffffffffffffffffffffffffff82169050919050565b60006200020382620001d6565b9050919050565b6200021581620001f6565b81146200022157600080fd5b50565b60008151905062000235816200020a565b92915050565b600060208284031215620002545762000253620001d1565b5b6000620002648482850162000224565b91505092915050565b60805160a051612d39620002af6000396000818161051a0152818161096c01528181610b2d01528181610bdc0152610ffc0152600061032f0152612d396000f3fe6080604052600436106100c65760003560e01c80633aecd0e31161007f5780637535d246116100595780637535d246146102975780638da5cb5b146102c2578063bcdb446b146102ed578063f2fde38b14610304576100cd565b80633aecd0e31461020657806343cf6f2414610243578063715018a614610280576100cd565b80630542975c146100d2578063068e7ca1146100fd57806316114acd1461013a5780631b11d0ff1461016357806326a215ec146101a05780632dc69ff3146101dd576100cd565b366100cd57005b600080fd5b3480156100de57600080fd5b506100e761032d565b6040516100f49190611cea565b60405180910390f35b34801561010957600080fd5b50610124600480360381019061011f9190611d8d565b610351565b6040516101319190611e17565b60405180910390f35b34801561014657600080fd5b50610161600480360381019061015c9190611e32565b610380565b005b34801561016f57600080fd5b5061018a60048036038101906101859190611ec4565b610516565b6040516101979190611f79565b60405180910390f35b3480156101ac57600080fd5b506101c760048036038101906101c29190611f94565b610a3c565b6040516101d49190611e17565b60405180910390f35b3480156101e957600080fd5b5061020460048036038101906101ff9190612185565b610a7e565b005b34801561021257600080fd5b5061022d60048036038101906102289190611e32565b610c78565b60405161023a9190611e17565b60405180910390f35b34801561024f57600080fd5b5061026a60048036038101906102659190612224565b610d00565b6040516102779190611e17565b60405180910390f35b34801561028c57600080fd5b50610295610ea7565b005b3480156102a357600080fd5b506102ac610ffa565b6040516102b991906122ac565b60405180910390f35b3480156102ce57600080fd5b506102d761101e565b6040516102e491906122d6565b60405180910390f35b3480156102f957600080fd5b50610302611047565b005b34801561031057600080fd5b5061032b60048036038101906103269190611e32565b611125565b005b7f000000000000000000000000000000000000000000000000000000000000000081565b60008061036087868686610d00565b9050600061037087868885610d00565b9050809250505095945050505050565b6103886112e7565b73ffffffffffffffffffffffffffffffffffffffff1660008054906101000a900473ffffffffffffffffffffffffffffffffffffffff1673ffffffffffffffffffffffffffffffffffffffff1614610415576040517f08c379a000000000000000000000000000000000000000000000000000000000815260040161040c9061234e565b60405180910390fd5b60008190508073ffffffffffffffffffffffffffffffffffffffff1663a9059cbb338373ffffffffffffffffffffffffffffffffffffffff166370a08231306040518263ffffffff1660e01b815260040161047091906122d6565b602060405180830381865afa15801561048d573d6000803e3d6000fd5b505050506040513d601f19601f820116820180604052508101906104b19190612383565b6040518363ffffffff1660e01b81526004016104ce9291906123b0565b6020604051808303816000875af11580156104ed573d6000803e3d6000fd5b505050506040513d601f19601f820116820180604052508101906105119190612405565b505050565b60007f000000000000000000000000000000000000000000000000000000000000000073ffffffffffffffffffffffffffffffffffffffff163373ffffffffffffffffffffffffffffffffffffffff16146105a6576040517f08c379a000000000000000000000000000000000000000000000000000000000815260040161059d906124a4565b60405180910390fd5b8673ffffffffffffffffffffffffffffffffffffffff166370a08231306040518263ffffffff1660e01b81526004016105df91906122d6565b602060405180830381865afa1580156105fc573d6000803e3d6000fd5b505050506040513d601f19601f820116820180604052508101906106209190612383565b861115610662576040517f08c379a000000000000000000000000000000000000000000000000000000000815260040161065990612510565b60405180910390fd5b60008773ffffffffffffffffffffffffffffffffffffffff166370a08231306040518263ffffffff1660e01b815260040161069d91906122d6565b602060405180830381865afa1580156106ba573d6000803e3d6000fd5b505050506040513d601f19601f820116820180604052508101906106de9190612383565b1161071e576040517f08c379a00000000000000000000000000000000000000000000000000000000081526004016107159061257c565b60405180910390fd5b6000808484810190610730919061259c565b9150915060038251148015610746575060038151145b15610801576107fc8160008151811061076257610761612614565b5b60200260200101518260018151811061077e5761077d612614565b5b60200260200101518360028151811061079a57610799612614565b5b6020026020010151856000815181106107b6576107b5612614565b5b6020026020010151866001815181106107d2576107d1612614565b5b6020026020010151876002815181106107ee576107ed612614565b5b60200260200101518e6112ef565b61087b565b61087a8160008151811061081857610817612614565b5b60200260200101518260018151811061083457610833612614565b5b6020026020010151846000815181106108505761084f612614565b5b60200260200101518560018151811061086c5761086b612614565b5b60200260200101518c61171d565b5b6000610890888a611a2790919063ffffffff16565b9050808a73ffffffffffffffffffffffffffffffffffffffff166370a08231306040518263ffffffff1660e01b81526004016108cc91906122d6565b602060405180830381865afa1580156108e9573d6000803e3d6000fd5b505050506040513d601f19601f8201168201806040525081019061090d9190612383565b101561094e576040517f08c379a00000000000000000000000000000000000000000000000000000000081526004016109459061268f565b60405180910390fd5b8973ffffffffffffffffffffffffffffffffffffffff1663095ea7b37f0000000000000000000000000000000000000000000000000000000000000000836040518363ffffffff1660e01b81526004016109a99291906123b0565b6020604051808303816000875af11580156109c8573d6000803e3d6000fd5b505050506040513d601f19601f820116820180604052508101906109ec9190612405565b610a2b576040517f08c379a0000000000000000000000000000000000000000000000000000000008152600401610a22906126fb565b60405180910390fd5b600193505050509695505050505050565b600080610a4b89878786610d00565b90506000610a5b89878785610d00565b90506000610a6b89878a85610d00565b9050809350505050979650505050505050565b610a866112e7565b73ffffffffffffffffffffffffffffffffffffffff1660008054906101000a900473ffffffffffffffffffffffffffffffffffffffff1673ffffffffffffffffffffffffffffffffffffffff1614610b13576040517f08c379a0000000000000000000000000000000000000000000000000000000008152600401610b0a9061234e565b60405180910390fd5b600073ffffffffffffffffffffffffffffffffffffffff167f000000000000000000000000000000000000000000000000000000000000000073ffffffffffffffffffffffffffffffffffffffff161415610ba3576040517f08c379a0000000000000000000000000000000000000000000000000000000008152600401610b9a90612767565b60405180910390fd5b60003090506000859050600085905060008486604051602001610bc7929190612845565b604051602081830303815290604052905060007f000000000000000000000000000000000000000000000000000000000000000073ffffffffffffffffffffffffffffffffffffffff166342b0b77c86868686866040518663ffffffff1660e01b8152600401610c3b959493929190612921565b600060405180830381600087803b158015610c5557600080fd5b505af1158015610c69573d6000803e3d6000fd5b50505050505050505050505050565b6000808273ffffffffffffffffffffffffffffffffffffffff166370a08231306040518263ffffffff1660e01b8152600401610cb491906122d6565b602060405180830381865afa158015610cd1573d6000803e3d6000fd5b505050506040513d601f19601f82011682018060405250810190610cf59190612383565b905080915050919050565b60006060600267ffffffffffffffff811115610d1f57610d1e612047565b5b604051908082528060200260200182016040528015610d4d5781602001602082028036833780820191505090505b5090508481600081518110610d6557610d64612614565b5b602002602001019073ffffffffffffffffffffffffffffffffffffffff16908173ffffffffffffffffffffffffffffffffffffffff16815250508381600181518110610db457610db3612614565b5b602002602001019073ffffffffffffffffffffffffffffffffffffffff16908173ffffffffffffffffffffffffffffffffffffffff168152505060008673ffffffffffffffffffffffffffffffffffffffff1663d06ca61f85846040518363ffffffff1660e01b8152600401610e2b92919061297b565b600060405180830381865afa158015610e48573d6000803e3d6000fd5b505050506040513d6000823e3d601f19601f82011682018060405250810190610e719190612a6e565b90508060018351610e829190612ae6565b81518110610e9357610e92612614565b5b602002602001015192505050949350505050565b610eaf6112e7565b73ffffffffffffffffffffffffffffffffffffffff1660008054906101000a900473ffffffffffffffffffffffffffffffffffffffff1673ffffffffffffffffffffffffffffffffffffffff1614610f3c576040517f08c379a0000000000000000000000000000000000000000000000000000000008152600401610f339061234e565b60405180910390fd5b600073ffffffffffffffffffffffffffffffffffffffff1660008054906101000a900473ffffffffffffffffffffffffffffffffffffffff1673ffffffffffffffffffffffffffffffffffffffff167f8be0079c531659141344cd1fd0a4f28419497f9722a3daafe3b4186f6b6457e060405160405180910390a360008060006101000a81548173ffffffffffffffffffffffffffffffffffffffff021916908373ffffffffffffffffffffffffffffffffffffffff160217905550565b7f000000000000000000000000000000000000000000000000000000000000000081565b60008060009054906101000a900473ffffffffffffffffffffffffffffffffffffffff16905090565b61104f6112e7565b73ffffffffffffffffffffffffffffffffffffffff1660008054906101000a900473ffffffffffffffffffffffffffffffffffffffff1673ffffffffffffffffffffffffffffffffffffffff16146110dc576040517f08c379a00000000000000000000000000000000000000000000000000000000081526004016110d39061234e565b60405180910390fd5b3373ffffffffffffffffffffffffffffffffffffffff166108fc479081150290604051600060405180830381858888f19350505050158015611122573d6000803e3d6000fd5b50565b61112d6112e7565b73ffffffffffffffffffffffffffffffffffffffff1660008054906101000a900473ffffffffffffffffffffffffffffffffffffffff1673ffffffffffffffffffffffffffffffffffffffff16146111ba576040517f08c379a00000000000000000000000000000000000000000000000000000000081526004016111b19061234e565b60405180910390fd5b600073ffffffffffffffffffffffffffffffffffffffff168173ffffffffffffffffffffffffffffffffffffffff16141561122a576040517f08c379a000000000000000000000000000000000000000000000000000000000815260040161122190612b8c565b60405180910390fd5b8073ffffffffffffffffffffffffffffffffffffffff1660008054906101000a900473ffffffffffffffffffffffffffffffffffffffff1673ffffffffffffffffffffffffffffffffffffffff167f8be0079c531659141344cd1fd0a4f28419497f9722a3daafe3b4186f6b6457e060405160405180910390a3806000806101000a81548173ffffffffffffffffffffffffffffffffffffffff021916908373ffffffffffffffffffffffffffffffffffffffff16021790555050565b600033905090565b6112f76112e7565b73ffffffffffffffffffffffffffffffffffffffff1660008054906101000a900473ffffffffffffffffffffffffffffffffffffffff1673ffffffffffffffffffffffffffffffffffffffff1614611384576040517f08c379a000000000000000000000000000000000000000000000000000000000815260040161137b9061234e565b60405180910390fd5b60008473ffffffffffffffffffffffffffffffffffffffff166370a08231306040518263ffffffff1660e01b81526004016113bf91906122d6565b602060405180830381865afa1580156113dc573d6000803e3d6000fd5b505050506040513d601f19601f820116820180604052508101906114009190612383565b905060008473ffffffffffffffffffffffffffffffffffffffff166370a08231306040518263ffffffff1660e01b815260040161143d91906122d6565b602060405180830381865afa15801561145a573d6000803e3d6000fd5b505050506040513d601f19601f8201168201806040525081019061147e9190612383565b905060008473ffffffffffffffffffffffffffffffffffffffff166370a08231306040518263ffffffff1660e01b81526004016114bb91906122d6565b602060405180830381865afa1580156114d8573d6000803e3d6000fd5b505050506040513d601f19601f820116820180604052508101906114fc9190612383565b905061150a8a888887611a41565b60008673ffffffffffffffffffffffffffffffffffffffff166370a08231306040518263ffffffff1660e01b815260040161154591906122d6565b602060405180830381865afa158015611562573d6000803e3d6000fd5b505050506040513d601f19601f820116820180604052508101906115869190612383565b9050600061159d8483611c5190919063ffffffff16565b90506115ab8b888a84611a41565b60008773ffffffffffffffffffffffffffffffffffffffff166370a08231306040518263ffffffff1660e01b81526004016115e691906122d6565b602060405180830381865afa158015611603573d6000803e3d6000fd5b505050506040513d601f19601f820116820180604052508101906116279190612383565b9050600061163e8583611c5190919063ffffffff16565b905061164c8c8a8d84611a41565b60008b73ffffffffffffffffffffffffffffffffffffffff166370a08231306040518263ffffffff1660e01b815260040161168791906122d6565b602060405180830381865afa1580156116a4573d6000803e3d6000fd5b505050506040513d601f19601f820116820180604052508101906116c89190612383565b905087811161170c576040517f08c379a000000000000000000000000000000000000000000000000000000000815260040161170390612bf8565b60405180910390fd5b505050505050505050505050505050565b6117256112e7565b73ffffffffffffffffffffffffffffffffffffffff1660008054906101000a900473ffffffffffffffffffffffffffffffffffffffff1673ffffffffffffffffffffffffffffffffffffffff16146117b2576040517f08c379a00000000000000000000000000000000000000000000000000000000081526004016117a99061234e565b60405180910390fd5b60008373ffffffffffffffffffffffffffffffffffffffff166370a08231306040518263ffffffff1660e01b81526004016117ed91906122d6565b602060405180830381865afa15801561180a573d6000803e3d6000fd5b505050506040513d601f19601f8201168201806040525081019061182e9190612383565b905060008373ffffffffffffffffffffffffffffffffffffffff166370a08231306040518263ffffffff1660e01b815260040161186b91906122d6565b602060405180830381865afa158015611888573d6000803e3d6000fd5b505050506040513d601f19601f820116820180604052508101906118ac9190612383565b90506118ba87868686611a41565b60008473ffffffffffffffffffffffffffffffffffffffff166370a08231306040518263ffffffff1660e01b81526004016118f591906122d6565b602060405180830381865afa158015611912573d6000803e3d6000fd5b505050506040513d601f19601f820116820180604052508101906119369190612383565b9050600061194d8383611c5190919063ffffffff16565b905061195b88878984611a41565b60008773ffffffffffffffffffffffffffffffffffffffff166370a08231306040518263ffffffff1660e01b815260040161199691906122d6565b602060405180830381865afa1580156119b3573d6000803e3d6000fd5b505050506040513d601f19601f820116820180604052508101906119d79190612383565b9050848111611a1b576040517f08c379a0000000000000000000000000000000000000000000000000000000008152600401611a1290612bf8565b60405180910390fd5b50505050505050505050565b6000828284019150811015611a3b57600080fd5b92915050565b8273ffffffffffffffffffffffffffffffffffffffff1663095ea7b385836040518363ffffffff1660e01b8152600401611a7c9291906123b0565b6020604051808303816000875af1158015611a9b573d6000803e3d6000fd5b505050506040513d601f19601f82011682018060405250810190611abf9190612405565b506060600267ffffffffffffffff811115611add57611adc612047565b5b604051908082528060200260200182016040528015611b0b5781602001602082028036833780820191505090505b5090508381600081518110611b2357611b22612614565b5b602002602001019073ffffffffffffffffffffffffffffffffffffffff16908173ffffffffffffffffffffffffffffffffffffffff16815250508281600181518110611b7257611b71612614565b5b602002602001019073ffffffffffffffffffffffffffffffffffffffff16908173ffffffffffffffffffffffffffffffffffffffff1681525050600061012c42611bbc9190612c18565b90508573ffffffffffffffffffffffffffffffffffffffff166338ed17398460018530866040518663ffffffff1660e01b8152600401611c00959493929190612ca9565b6000604051808303816000875af1158015611c1f573d6000803e3d6000fd5b505050506040513d6000823e3d601f19601f82011682018060405250810190611c489190612a6e565b50505050505050565b6000828284039150811115611c6557600080fd5b92915050565b600073ffffffffffffffffffffffffffffffffffffffff82169050919050565b6000819050919050565b6000611cb0611cab611ca684611c6b565b611c8b565b611c6b565b9050919050565b6000611cc282611c95565b9050919050565b6000611cd482611cb7565b9050919050565b611ce481611cc9565b82525050565b6000602082019050611cff6000830184611cdb565b92915050565b6000604051905090565b600080fd5b600080fd5b6000611d2482611c6b565b9050919050565b611d3481611d19565b8114611d3f57600080fd5b50565b600081359050611d5181611d2b565b92915050565b6000819050919050565b611d6a81611d57565b8114611d7557600080fd5b50565b600081359050611d8781611d61565b92915050565b600080600080600060a08688031215611da957611da8611d0f565b5b6000611db788828901611d42565b9550506020611dc888828901611d42565b9450506040611dd988828901611d42565b9350506060611dea88828901611d42565b9250506080611dfb88828901611d78565b9150509295509295909350565b611e1181611d57565b82525050565b6000602082019050611e2c6000830184611e08565b92915050565b600060208284031215611e4857611e47611d0f565b5b6000611e5684828501611d42565b91505092915050565b600080fd5b600080fd5b600080fd5b60008083601f840112611e8457611e83611e5f565b5b8235905067ffffffffffffffff811115611ea157611ea0611e64565b5b602083019150836001820283011115611ebd57611ebc611e69565b5b9250929050565b60008060008060008060a08789031215611ee157611ee0611d0f565b5b6000611eef89828a01611d42565b9650506020611f0089828a01611d78565b9550506040611f1189828a01611d78565b9450506060611f2289828a01611d42565b935050608087013567ffffffffffffffff811115611f4357611f42611d14565b5b611f4f89828a01611e6e565b92509250509295509295509295565b60008115159050919050565b611f7381611f5e565b82525050565b6000602082019050611f8e6000830184611f6a565b92915050565b600080600080600080600060e0888a031215611fb357611fb2611d0f565b5b6000611fc18a828b01611d42565b9750506020611fd28a828b01611d42565b9650506040611fe38a828b01611d42565b9550506060611ff48a828b01611d42565b94505060806120058a828b01611d42565b93505060a06120168a828b01611d42565b92505060c06120278a828b01611d78565b91505092959891949750929550565b6000601f19601f8301169050919050565b7f4e487b7100000000000000000000000000000000000000000000000000000000600052604160045260246000fd5b61207f82612036565b810181811067ffffffffffffffff8211171561209e5761209d612047565b5b80604052505050565b60006120b1611d05565b90506120bd8282612076565b919050565b600067ffffffffffffffff8211156120dd576120dc612047565b5b602082029050602081019050919050565b60006121016120fc846120c2565b6120a7565b9050808382526020820190506020840283018581111561212457612123611e69565b5b835b8181101561214d57806121398882611d42565b845260208401935050602081019050612126565b5050509392505050565b600082601f83011261216c5761216b611e5f565b5b813561217c8482602086016120ee565b91505092915050565b6000806000806080858703121561219f5761219e611d0f565b5b60006121ad87828801611d42565b94505060206121be87828801611d78565b935050604085013567ffffffffffffffff8111156121df576121de611d14565b5b6121eb87828801612157565b925050606085013567ffffffffffffffff81111561220c5761220b611d14565b5b61221887828801612157565b91505092959194509250565b6000806000806080858703121561223e5761223d611d0f565b5b600061224c87828801611d42565b945050602061225d87828801611d42565b935050604061226e87828801611d42565b925050606061227f87828801611d78565b91505092959194509250565b600061229682611cb7565b9050919050565b6122a68161228b565b82525050565b60006020820190506122c1600083018461229d565b92915050565b6122d081611d19565b82525050565b60006020820190506122eb60008301846122c7565b92915050565b600082825260208201905092915050565b7f4f776e61626c653a2063616c6c6572206973206e6f7420746865206f776e6572600082015250565b60006123386020836122f1565b915061234382612302565b602082019050919050565b600060208201905081810360008301526123678161232b565b9050919050565b60008151905061237d81611d61565b92915050565b60006020828403121561239957612398611d0f565b5b60006123a78482850161236e565b91505092915050565b60006040820190506123c560008301856122c7565b6123d26020830184611e08565b9392505050565b6123e281611f5e565b81146123ed57600080fd5b50565b6000815190506123ff816123d9565b92915050565b60006020828403121561241b5761241a611d0f565b5b6000612429848285016123f0565b91505092915050565b7f546869732066756e6374696f6e2063616e206f6e6c792062652063616c6c656460008201527f20627920746865204161766520506f6f6c000000000000000000000000000000602082015250565b600061248e6031836122f1565b915061249982612432565b604082019050919050565b600060208201905081810360008301526124bd81612481565b9050919050565b7f496e76616c69642062616c616e636520666f722074686520636f6e7472616374600082015250565b60006124fa6020836122f1565b9150612505826124c4565b602082019050919050565b60006020820190508181036000830152612529816124ed565b9050919050565b7f5a65726f2062616c616e636520696e20636f6e74726163740000000000000000600082015250565b60006125666018836122f1565b915061257182612530565b602082019050919050565b6000602082019050818103600083015261259581612559565b9050919050565b600080604083850312156125b3576125b2611d0f565b5b600083013567ffffffffffffffff8111156125d1576125d0611d14565b5b6125dd85828601612157565b925050602083013567ffffffffffffffff8111156125fe576125fd611d14565b5b61260a85828601612157565b9150509250929050565b7f4e487b7100000000000000000000000000000000000000000000000000000000600052603260045260246000fd5b7f4e6f7420656e6f75676820616d6f756e7420746f2072657475726e206c6f616e600082015250565b60006126796020836122f1565b915061268482612643565b602082019050919050565b600060208201905081810360008301526126a88161266c565b9050919050565b7f617070726f7665206661696c6564000000000000000000000000000000000000600082015250565b60006126e5600e836122f1565b91506126f0826126af565b602082019050919050565b60006020820190508181036000830152612714816126d8565b9050919050565b7f504f4f4c20646f6573206e6f7420657869737421000000000000000000000000600082015250565b60006127516014836122f1565b915061275c8261271b565b602082019050919050565b6000602082019050818103600083015261278081612744565b9050919050565b600081519050919050565b600082825260208201905092915050565b6000819050602082019050919050565b6127bc81611d19565b82525050565b60006127ce83836127b3565b60208301905092915050565b6000602082019050919050565b60006127f282612787565b6127fc8185612792565b9350612807836127a3565b8060005b8381101561283857815161281f88826127c2565b975061282a836127da565b92505060018101905061280b565b5085935050505092915050565b6000604082019050818103600083015261285f81856127e7565b9050818103602083015261287381846127e7565b90509392505050565b600081519050919050565b600082825260208201905092915050565b60005b838110156128b657808201518184015260208101905061289b565b838111156128c5576000848401525b50505050565b60006128d68261287c565b6128e08185612887565b93506128f0818560208601612898565b6128f981612036565b840191505092915050565b600061ffff82169050919050565b61291b81612904565b82525050565b600060a08201905061293660008301886122c7565b61294360208301876122c7565b6129506040830186611e08565b818103606083015261296281856128cb565b90506129716080830184612912565b9695505050505050565b60006040820190506129906000830185611e08565b81810360208301526129a281846127e7565b90509392505050565b600067ffffffffffffffff8211156129c6576129c5612047565b5b602082029050602081019050919050565b60006129ea6129e5846129ab565b6120a7565b90508083825260208201905060208402830185811115612a0d57612a0c611e69565b5b835b81811015612a365780612a22888261236e565b845260208401935050602081019050612a0f565b5050509392505050565b600082601f830112612a5557612a54611e5f565b5b8151612a658482602086016129d7565b91505092915050565b600060208284031215612a8457612a83611d0f565b5b600082015167ffffffffffffffff811115612aa257612aa1611d14565b5b612aae84828501612a40565b91505092915050565b7f4e487b7100000000000000000000000000000000000000000000000000000000600052601160045260246000fd5b6000612af182611d57565b9150612afc83611d57565b925082821015612b0f57612b0e612ab7565b5b828203905092915050565b7f4f776e61626c653a206e6577206f776e657220697320746865207a65726f206160008201527f6464726573730000000000000000000000000000000000000000000000000000602082015250565b6000612b766026836122f1565b9150612b8182612b1a565b604082019050919050565b60006020820190508181036000830152612ba581612b69565b9050919050565b7f54726164652052657665727465642c204e6f2050726f666974204d6164650000600082015250565b6000612be2601e836122f1565b9150612bed82612bac565b602082019050919050565b60006020820190508181036000830152612c1181612bd5565b9050919050565b6000612c2382611d57565b9150612c2e83611d57565b9250827fffffffffffffffffffffffffffffffffffffffffffffffffffffffffffffffff03821115612c6357612c62612ab7565b5b828201905092915050565b6000819050919050565b6000612c93612c8e612c8984612c6e565b611c8b565b611d57565b9050919050565b612ca381612c78565b82525050565b600060a082019050612cbe6000830188611e08565b612ccb6020830187612c9a565b8181036040830152612cdd81866127e7565b9050612cec60608301856122c7565b612cf96080830184611e08565b969550505050505056fea2646970667358221220126446e8450eb6bc8b6a4fa36c3f3457d52fcd383a6df74a2902264b449d5bc264736f6c634300080a0033",
  "immutableReferences": {
    "347": [
      {
        "length": 32,
        "start": 815
      }
    ],
    "351": [
      {
        "length": 32,
        "start": 1306
      },
      {
        "length": 32,
        "start": 2412
      },
      {
        "length": 32,
        "start": 2861
      },
      {
        "length": 32,
        "start": 3036
      },
      {
        "length": 32,
        "start": 4092
      }
    ]
  },
  "source": "// SPDX-License-Identifier: UNLICENSED\npragma solidity 0.8.10;\n\n// Uncomment this line to use console.log\n// import \"hardhat/console.sol\";\n\nimport {FlashLoanSimpleReceiverBase} from \"@aave/core-v3/contracts/flashloan/base/FlashLoanSimpleReceiverBase.sol\";\nimport {IPoolAddressesProvider} from \"@aave/core-v3/contracts/interfaces/IPoolAddressesProvider.sol\";\nimport {SafeMath} from \"@aave/core-v3/contracts/dependencies/openzeppelin/contracts/SafeMath.sol\";\nimport \"./Arb.sol\";\n\ncontract FlashLoan is FlashLoanSimpleReceiverBase, Arb {\n\n    using SafeMath for uint256;\n\n    constructor(address _addressProvider) FlashLoanSimpleReceiverBase(IPoolAddressesProvider(_addressProvider)) {\n    }\n\n    /**\n     * @notice Executes an operation after receiving the flash-borrowed asset\n     * @dev Ensure that the contract can return the debt + premium, e.g., has enough funds to repay and has approved the Pool to pull the total amount\n     * @param asset The address of the flash-borrowed asset\n     * @param amount The amount of the flash-borrowed asset\n     * @param premium The fee of the flash-borrowed asset\n     * @param initiator The address of the flashloan initiator\n     * @param params The byte-encoded params passed when initiating the flashloan\n     * @return True if the execution of the operation succeeds, false otherwise\n     */\n    function executeOperation(\n        address asset,\n        uint256 amount,\n        uint256 premium,\n        address initiator,\n        bytes calldata params\n    ) external override returns (bool) {\n        require(msg.sender == address(POOL), \"This function can only be called by the Aave Pool\");\n        require(amount <= IERC20(asset).balanceOf(address(this)), \"Invalid balance for the contract\");\n        require(IERC20(asset).balanceOf(address(this)) > 0, \"Zero balance in contract\");\n\n        // Your Arb logic goes here.\n        (address[] memory _swappingPair, address[] memory _routesPair) = abi.decode(params, (address[], address[]));\n\n        if (_swappingPair.length == 3 && _routesPair.length == 3) {\n            triDexTrade(_routesPair[0], _routesPair[1], _routesPair[2], _swappingPair[0], _swappingPair[1], _swappingPair[2], amount);\n        } else {\n            dualDexTrade(_routesPair[0], _routesPair[1], _swappingPair[0], _swappingPair[1], amount);\n        }\n\n        // Make sure to have this call at the end\n        uint256 amountOwed = amount.add(premium);\n        require(IERC20(asset).balanceOf(address(this)) >= amountOwed, \"Not enough amount to return loan\");\n        require(IERC20(asset).approve(address(POOL), amountOwed), \"approve failed\");\n        return true;\n    }\n\n\n    function requestFlashLoan(address _asset, uint256 _amount, address[] memory _routesPair, address[] memory _swappingPair) public onlyOwner {\n        require(address(POOL) != address(0), \"POOL does not exist!\");\n\n        address receiverAddress = address(this);\n        address asset = _asset;\n        uint256 amount = _amount;\n        bytes memory params = abi.encode(_swappingPair, _routesPair);\n        uint16 referralCode = 0;\n\n        /**\n         * @notice Allows smartcontracts to access the liquidity of the pool within one transaction,\n         * as long as the amount taken plus a fee is returned.\n         * @dev IMPORTANT There are security concerns for developers of flashloan receiver contracts that must be kept\n         * into consideration. For further details please visit https://developers.aave.com\n         * @param receiverAddress The address of the contract receiving the funds, implementing IFlashLoanSimpleReceiver interface\n         * @param asset The address of the asset being flash-borrowed\n         * @param amount The amount of the asset being flash-borrowed\n         * @param params Variadic packed params to pass to the receiver as extra information\n         * @param referralCode The code used to register the integrator originating the operation, for potential rewards.\n         *   0 if the action is executed directly by the user, without any middle-man\n         **/\n        POOL.flashLoanSimple(receiverAddress, asset, amount, params, referralCode);\n    }\n\n\n    function getTokenBalance (address _tokenContractAddress) external view returns (uint256) {\n\t\tuint balance = IERC20(_tokenContractAddress).balanceOf(address(this));\n\t\treturn balance;\n\t}\n\t\n\tfunction recoverEth() external onlyOwner {\n\t\tpayable(msg.sender).transfer(address(this).balance);\n\t}\n\n\tfunction recoverTokens(address tokenAddress) external onlyOwner {\n\t\tIERC20 token = IERC20(tokenAddress);\n\t\ttoken.transfer(msg.sender, token.balanceOf(address(this)));\n\t}\n\n\treceive() external payable {}\n}",
  "sourcePath": "/Users/vasilis/Projects/flashSwaps/flashloan-swaps/contracts/FlashLoan.sol",
  "compiler": {
    "name": "solc",
    "version": "0.8.10+commit.fc410830.Emscripten.clang"
  },
  "schemaVersion": "3.4.10",
  "updatedAt": "2022-11-22T14:11:59.427Z",
  "networkType": "ethereum",
  "devdoc": {
    "kind": "dev",
    "methods": {
      "executeOperation(address,uint256,uint256,address,bytes)": {
        "details": "Ensure that the contract can return the debt + premium, e.g., has enough funds to repay and has approved the Pool to pull the total amount",
        "params": {
          "amount": "The amount of the flash-borrowed asset",
          "asset": "The address of the flash-borrowed asset",
          "initiator": "The address of the flashloan initiator",
          "params": "The byte-encoded params passed when initiating the flashloan",
          "premium": "The fee of the flash-borrowed asset"
        },
        "returns": {
          "_0": "True if the execution of the operation succeeds, false otherwise"
        }
      },
      "owner()": {
        "details": "Returns the address of the current owner."
      },
      "renounceOwnership()": {
        "details": "Leaves the contract without owner. It will not be possible to call `onlyOwner` functions anymore. Can only be called by the current owner. NOTE: Renouncing ownership will leave the contract without an owner, thereby removing any functionality that is only available to the owner."
      },
      "transferOwnership(address)": {
        "details": "Transfers ownership of the contract to a new account (`newOwner`). Can only be called by the current owner."
      }
    },
    "version": 1
  },
  "userdoc": {
    "kind": "user",
    "methods": {
      "executeOperation(address,uint256,uint256,address,bytes)": {
        "notice": "Executes an operation after receiving the flash-borrowed asset"
      }
    },
    "version": 1
  }
}