{
  "contractName": "FlashLoan",
  "abi": [
    {
      "inputs": [
        {
          "internalType": "address",
          "name": "_addressProvider",
          "type": "address"
        }
      ],
      "stateMutability": "nonpayable",
      "type": "constructor"
    },
    {
      "anonymous": false,
      "inputs": [
        {
          "indexed": true,
          "internalType": "address",
          "name": "previousOwner",
          "type": "address"
        },
        {
          "indexed": true,
          "internalType": "address",
          "name": "newOwner",
          "type": "address"
        }
      ],
      "name": "OwnershipTransferred",
      "type": "event"
    },
    {
      "inputs": [],
      "name": "ADDRESSES_PROVIDER",
      "outputs": [
        {
          "internalType": "contract IPoolAddressesProvider",
          "name": "",
          "type": "address"
        }
      ],
      "stateMutability": "view",
      "type": "function",
      "constant": true
    },
    {
      "inputs": [],
      "name": "POOL",
      "outputs": [
        {
          "internalType": "contract IPool",
          "name": "",
          "type": "address"
        }
      ],
      "stateMutability": "view",
      "type": "function",
      "constant": true
    },
    {
      "inputs": [
        {
          "internalType": "address",
          "name": "_router1",
          "type": "address"
        },
        {
          "internalType": "address",
          "name": "_router2",
          "type": "address"
        },
        {
          "internalType": "address",
          "name": "_token1",
          "type": "address"
        },
        {
          "internalType": "address",
          "name": "_token2",
          "type": "address"
        },
        {
          "internalType": "uint256",
          "name": "_amount",
          "type": "uint256"
        }
      ],
      "name": "dualDexTrade",
      "outputs": [],
      "stateMutability": "nonpayable",
      "type": "function"
    },
    {
      "inputs": [
        {
          "internalType": "address",
          "name": "_router1",
          "type": "address"
        },
        {
          "internalType": "address",
          "name": "_router2",
          "type": "address"
        },
        {
          "internalType": "address",
          "name": "_token1",
          "type": "address"
        },
        {
          "internalType": "address",
          "name": "_token2",
          "type": "address"
        },
        {
          "internalType": "uint256",
          "name": "_amount",
          "type": "uint256"
        }
      ],
      "name": "estimateDualDexTrade",
      "outputs": [
        {
          "internalType": "uint256",
          "name": "",
          "type": "uint256"
        }
      ],
      "stateMutability": "view",
      "type": "function",
      "constant": true
    },
    {
      "inputs": [
        {
          "internalType": "address",
          "name": "router",
          "type": "address"
        },
        {
          "internalType": "address",
          "name": "_tokenIn",
          "type": "address"
        },
        {
          "internalType": "address",
          "name": "_tokenOut",
          "type": "address"
        },
        {
          "internalType": "uint256",
          "name": "_amount",
          "type": "uint256"
        }
      ],
      "name": "getAmountOutMin",
      "outputs": [
        {
          "internalType": "uint256",
          "name": "",
          "type": "uint256"
        }
      ],
      "stateMutability": "view",
      "type": "function",
      "constant": true
    },
    {
      "inputs": [],
      "name": "owner",
      "outputs": [
        {
          "internalType": "address",
          "name": "",
          "type": "address"
        }
      ],
      "stateMutability": "view",
      "type": "function",
      "constant": true
    },
    {
      "inputs": [],
      "name": "renounceOwnership",
      "outputs": [],
      "stateMutability": "nonpayable",
      "type": "function"
    },
    {
      "inputs": [
        {
          "internalType": "address",
          "name": "newOwner",
          "type": "address"
        }
      ],
      "name": "transferOwnership",
      "outputs": [],
      "stateMutability": "nonpayable",
      "type": "function"
    },
    {
      "stateMutability": "payable",
      "type": "receive",
      "payable": true
    },
    {
      "inputs": [
        {
          "internalType": "address",
          "name": "asset",
          "type": "address"
        },
        {
          "internalType": "uint256",
          "name": "amount",
          "type": "uint256"
        },
        {
          "internalType": "uint256",
          "name": "premium",
          "type": "uint256"
        },
        {
          "internalType": "address",
          "name": "initiator",
          "type": "address"
        },
        {
          "internalType": "bytes",
          "name": "params",
          "type": "bytes"
        }
      ],
      "name": "executeOperation",
      "outputs": [
        {
          "internalType": "bool",
          "name": "",
          "type": "bool"
        }
      ],
      "stateMutability": "nonpayable",
      "type": "function"
    },
    {
      "inputs": [
        {
          "internalType": "address",
          "name": "_asset",
          "type": "address"
        },
        {
          "internalType": "uint256",
          "name": "_amount",
          "type": "uint256"
        }
      ],
      "name": "requestFlashLoan",
      "outputs": [],
      "stateMutability": "nonpayable",
      "type": "function"
    },
    {
      "inputs": [
        {
          "internalType": "address",
          "name": "_tokenContractAddress",
          "type": "address"
        }
      ],
      "name": "getTokenBalance",
      "outputs": [
        {
          "internalType": "uint256",
          "name": "",
          "type": "uint256"
        }
      ],
      "stateMutability": "view",
      "type": "function",
      "constant": true
    },
    {
      "inputs": [],
      "name": "recoverEth",
      "outputs": [],
      "stateMutability": "nonpayable",
      "type": "function"
    },
    {
      "inputs": [
        {
          "internalType": "address",
          "name": "tokenAddress",
          "type": "address"
        }
      ],
      "name": "recoverTokens",
      "outputs": [],
      "stateMutability": "nonpayable",
      "type": "function"
    }
  ],
  "bytecode": "0x60c06040523480156200001157600080fd5b506040516200275d3803806200275d83398181016040528101906200003791906200023b565b808073ffffffffffffffffffffffffffffffffffffffff1660808173ffffffffffffffffffffffffffffffffffffffff16815250508073ffffffffffffffffffffffffffffffffffffffff1663026b1d5f6040518163ffffffff1660e01b8152600401602060405180830381865afa158015620000b8573d6000803e3d6000fd5b505050506040513d601f19601f82011682018060405250810190620000de91906200023b565b73ffffffffffffffffffffffffffffffffffffffff1660a08173ffffffffffffffffffffffffffffffffffffffff168152505050600062000124620001c960201b60201c565b9050806000806101000a81548173ffffffffffffffffffffffffffffffffffffffff021916908373ffffffffffffffffffffffffffffffffffffffff1602179055508073ffffffffffffffffffffffffffffffffffffffff16600073ffffffffffffffffffffffffffffffffffffffff167f8be0079c531659141344cd1fd0a4f28419497f9722a3daafe3b4186f6b6457e060405160405180910390a350506200026d565b600033905090565b600080fd5b600073ffffffffffffffffffffffffffffffffffffffff82169050919050565b60006200020382620001d6565b9050919050565b6200021581620001f6565b81146200022157600080fd5b50565b60008151905062000235816200020a565b92915050565b600060208284031215620002545762000253620001d1565b5b6000620002648482850162000224565b91505092915050565b60805160a0516124ae620002af6000396000818161080901528181610afe01528181610f500152818161112801526111c50152600061031b01526124ae6000f3fe6080604052600436106100c65760003560e01c806343cf6f241161007f5780638da5cb5b116100595780638da5cb5b14610285578063bcdb446b146102b0578063d54ba954146102c7578063f2fde38b146102f0576100cd565b806343cf6f2414610206578063715018a6146102435780637535d2461461025a576100cd565b80630542975c146100d2578063068e7ca1146100fd57806316114acd1461013a5780631aa51318146101635780631b11d0ff1461018c5780633aecd0e3146101c9576100cd565b366100cd57005b600080fd5b3480156100de57600080fd5b506100e7610319565b6040516100f491906116d2565b60405180910390f35b34801561010957600080fd5b50610124600480360381019061011f9190611775565b61033d565b60405161013191906117ff565b60405180910390f35b34801561014657600080fd5b50610161600480360381019061015c919061181a565b61036c565b005b34801561016f57600080fd5b5061018a60048036038101906101859190611775565b610502565b005b34801561019857600080fd5b506101b360048036038101906101ae91906118ac565b610805565b6040516101c09190611961565b60405180910390f35b3480156101d557600080fd5b506101f060048036038101906101eb919061181a565b610bcc565b6040516101fd91906117ff565b60405180910390f35b34801561021257600080fd5b5061022d6004803603810190610228919061197c565b610c54565b60405161023a91906117ff565b60405180910390f35b34801561024f57600080fd5b50610258610dfb565b005b34801561026657600080fd5b5061026f610f4e565b60405161027c9190611a04565b60405180910390f35b34801561029157600080fd5b5061029a610f72565b6040516102a79190611a2e565b60405180910390f35b3480156102bc57600080fd5b506102c5610f9b565b005b3480156102d357600080fd5b506102ee60048036038101906102e99190611a49565b611079565b005b3480156102fc57600080fd5b506103176004803603810190610312919061181a565b61125f565b005b7f000000000000000000000000000000000000000000000000000000000000000081565b60008061034c87868686610c54565b9050600061035c87868885610c54565b9050809250505095945050505050565b610374611421565b73ffffffffffffffffffffffffffffffffffffffff1660008054906101000a900473ffffffffffffffffffffffffffffffffffffffff1673ffffffffffffffffffffffffffffffffffffffff1614610401576040517f08c379a00000000000000000000000000000000000000000000000000000000081526004016103f890611ae6565b60405180910390fd5b60008190508073ffffffffffffffffffffffffffffffffffffffff1663a9059cbb338373ffffffffffffffffffffffffffffffffffffffff166370a08231306040518263ffffffff1660e01b815260040161045c9190611a2e565b602060405180830381865afa158015610479573d6000803e3d6000fd5b505050506040513d601f19601f8201168201806040525081019061049d9190611b1b565b6040518363ffffffff1660e01b81526004016104ba929190611b48565b6020604051808303816000875af11580156104d9573d6000803e3d6000fd5b505050506040513d601f19601f820116820180604052508101906104fd9190611b9d565b505050565b61050a611421565b73ffffffffffffffffffffffffffffffffffffffff1660008054906101000a900473ffffffffffffffffffffffffffffffffffffffff1673ffffffffffffffffffffffffffffffffffffffff1614610597576040517f08c379a000000000000000000000000000000000000000000000000000000000815260040161058e90611ae6565b60405180910390fd5b60008373ffffffffffffffffffffffffffffffffffffffff166370a08231306040518263ffffffff1660e01b81526004016105d29190611a2e565b602060405180830381865afa1580156105ef573d6000803e3d6000fd5b505050506040513d601f19601f820116820180604052508101906106139190611b1b565b905060008373ffffffffffffffffffffffffffffffffffffffff166370a08231306040518263ffffffff1660e01b81526004016106509190611a2e565b602060405180830381865afa15801561066d573d6000803e3d6000fd5b505050506040513d601f19601f820116820180604052508101906106919190611b1b565b905061069f87868686611429565b60008473ffffffffffffffffffffffffffffffffffffffff166370a08231306040518263ffffffff1660e01b81526004016106da9190611a2e565b602060405180830381865afa1580156106f7573d6000803e3d6000fd5b505050506040513d601f19601f8201168201806040525081019061071b9190611b1b565b90506000828261072b9190611bf9565b905061073988878984611429565b60008773ffffffffffffffffffffffffffffffffffffffff166370a08231306040518263ffffffff1660e01b81526004016107749190611a2e565b602060405180830381865afa158015610791573d6000803e3d6000fd5b505050506040513d601f19601f820116820180604052508101906107b59190611b1b565b90508481116107f9576040517f08c379a00000000000000000000000000000000000000000000000000000000081526004016107f090611c79565b60405180910390fd5b50505050505050505050565b60007f000000000000000000000000000000000000000000000000000000000000000073ffffffffffffffffffffffffffffffffffffffff163373ffffffffffffffffffffffffffffffffffffffff1614610895576040517f08c379a000000000000000000000000000000000000000000000000000000000815260040161088c90611d0b565b60405180910390fd5b8673ffffffffffffffffffffffffffffffffffffffff166370a08231306040518263ffffffff1660e01b81526004016108ce9190611a2e565b602060405180830381865afa1580156108eb573d6000803e3d6000fd5b505050506040513d601f19601f8201168201806040525081019061090f9190611b1b565b861115610951576040517f08c379a000000000000000000000000000000000000000000000000000000000815260040161094890611d77565b60405180910390fd5b60008773ffffffffffffffffffffffffffffffffffffffff166370a08231306040518263ffffffff1660e01b815260040161098c9190611a2e565b602060405180830381865afa1580156109a9573d6000803e3d6000fd5b505050506040513d601f19601f820116820180604052508101906109cd9190611b1b565b11610a0d576040517f08c379a0000000000000000000000000000000000000000000000000000000008152600401610a0490611de3565b60405180910390fd5b6000610a22868861163990919063ffffffff16565b9050808873ffffffffffffffffffffffffffffffffffffffff166370a08231306040518263ffffffff1660e01b8152600401610a5e9190611a2e565b602060405180830381865afa158015610a7b573d6000803e3d6000fd5b505050506040513d601f19601f82011682018060405250810190610a9f9190611b1b565b1015610ae0576040517f08c379a0000000000000000000000000000000000000000000000000000000008152600401610ad790611e4f565b60405180910390fd5b8773ffffffffffffffffffffffffffffffffffffffff1663095ea7b37f0000000000000000000000000000000000000000000000000000000000000000836040518363ffffffff1660e01b8152600401610b3b929190611b48565b6020604051808303816000875af1158015610b5a573d6000803e3d6000fd5b505050506040513d601f19601f82011682018060405250810190610b7e9190611b9d565b610bbd576040517f08c379a0000000000000000000000000000000000000000000000000000000008152600401610bb490611ebb565b60405180910390fd5b60019150509695505050505050565b6000808273ffffffffffffffffffffffffffffffffffffffff166370a08231306040518263ffffffff1660e01b8152600401610c089190611a2e565b602060405180830381865afa158015610c25573d6000803e3d6000fd5b505050506040513d601f19601f82011682018060405250810190610c499190611b1b565b905080915050919050565b60006060600267ffffffffffffffff811115610c7357610c72611edb565b5b604051908082528060200260200182016040528015610ca15781602001602082028036833780820191505090505b5090508481600081518110610cb957610cb8611f0a565b5b602002602001019073ffffffffffffffffffffffffffffffffffffffff16908173ffffffffffffffffffffffffffffffffffffffff16815250508381600181518110610d0857610d07611f0a565b5b602002602001019073ffffffffffffffffffffffffffffffffffffffff16908173ffffffffffffffffffffffffffffffffffffffff168152505060008673ffffffffffffffffffffffffffffffffffffffff1663d06ca61f85846040518363ffffffff1660e01b8152600401610d7f929190611ff7565b600060405180830381865afa158015610d9c573d6000803e3d6000fd5b505050506040513d6000823e3d601f19601f82011682018060405250810190610dc59190612147565b90508060018351610dd69190611bf9565b81518110610de757610de6611f0a565b5b602002602001015192505050949350505050565b610e03611421565b73ffffffffffffffffffffffffffffffffffffffff1660008054906101000a900473ffffffffffffffffffffffffffffffffffffffff1673ffffffffffffffffffffffffffffffffffffffff1614610e90576040517f08c379a0000000000000000000000000000000000000000000000000000000008152600401610e8790611ae6565b60405180910390fd5b600073ffffffffffffffffffffffffffffffffffffffff1660008054906101000a900473ffffffffffffffffffffffffffffffffffffffff1673ffffffffffffffffffffffffffffffffffffffff167f8be0079c531659141344cd1fd0a4f28419497f9722a3daafe3b4186f6b6457e060405160405180910390a360008060006101000a81548173ffffffffffffffffffffffffffffffffffffffff021916908373ffffffffffffffffffffffffffffffffffffffff160217905550565b7f000000000000000000000000000000000000000000000000000000000000000081565b60008060009054906101000a900473ffffffffffffffffffffffffffffffffffffffff16905090565b610fa3611421565b73ffffffffffffffffffffffffffffffffffffffff1660008054906101000a900473ffffffffffffffffffffffffffffffffffffffff1673ffffffffffffffffffffffffffffffffffffffff1614611030576040517f08c379a000000000000000000000000000000000000000000000000000000000815260040161102790611ae6565b60405180910390fd5b3373ffffffffffffffffffffffffffffffffffffffff166108fc479081150290604051600060405180830381858888f19350505050158015611076573d6000803e3d6000fd5b50565b611081611421565b73ffffffffffffffffffffffffffffffffffffffff1660008054906101000a900473ffffffffffffffffffffffffffffffffffffffff1673ffffffffffffffffffffffffffffffffffffffff161461110e576040517f08c379a000000000000000000000000000000000000000000000000000000000815260040161110590611ae6565b60405180910390fd5b600073ffffffffffffffffffffffffffffffffffffffff167f000000000000000000000000000000000000000000000000000000000000000073ffffffffffffffffffffffffffffffffffffffff16141561119e576040517f08c379a0000000000000000000000000000000000000000000000000000000008152600401611195906121dc565b60405180910390fd5b600030905060008390506000839050600060405180602001604052806000815250905060007f000000000000000000000000000000000000000000000000000000000000000073ffffffffffffffffffffffffffffffffffffffff166342b0b77c86868686866040518663ffffffff1660e01b81526004016112249594939291906122a1565b600060405180830381600087803b15801561123e57600080fd5b505af1158015611252573d6000803e3d6000fd5b5050505050505050505050565b611267611421565b73ffffffffffffffffffffffffffffffffffffffff1660008054906101000a900473ffffffffffffffffffffffffffffffffffffffff1673ffffffffffffffffffffffffffffffffffffffff16146112f4576040517f08c379a00000000000000000000000000000000000000000000000000000000081526004016112eb90611ae6565b60405180910390fd5b600073ffffffffffffffffffffffffffffffffffffffff168173ffffffffffffffffffffffffffffffffffffffff161415611364576040517f08c379a000000000000000000000000000000000000000000000000000000000815260040161135b9061236d565b60405180910390fd5b8073ffffffffffffffffffffffffffffffffffffffff1660008054906101000a900473ffffffffffffffffffffffffffffffffffffffff1673ffffffffffffffffffffffffffffffffffffffff167f8be0079c531659141344cd1fd0a4f28419497f9722a3daafe3b4186f6b6457e060405160405180910390a3806000806101000a81548173ffffffffffffffffffffffffffffffffffffffff021916908373ffffffffffffffffffffffffffffffffffffffff16021790555050565b600033905090565b8273ffffffffffffffffffffffffffffffffffffffff1663095ea7b385836040518363ffffffff1660e01b8152600401611464929190611b48565b6020604051808303816000875af1158015611483573d6000803e3d6000fd5b505050506040513d601f19601f820116820180604052508101906114a79190611b9d565b506060600267ffffffffffffffff8111156114c5576114c4611edb565b5b6040519080825280602002602001820160405280156114f35781602001602082028036833780820191505090505b509050838160008151811061150b5761150a611f0a565b5b602002602001019073ffffffffffffffffffffffffffffffffffffffff16908173ffffffffffffffffffffffffffffffffffffffff1681525050828160018151811061155a57611559611f0a565b5b602002602001019073ffffffffffffffffffffffffffffffffffffffff16908173ffffffffffffffffffffffffffffffffffffffff1681525050600061012c426115a4919061238d565b90508573ffffffffffffffffffffffffffffffffffffffff166338ed17398460018530866040518663ffffffff1660e01b81526004016115e895949392919061241e565b6000604051808303816000875af1158015611607573d6000803e3d6000fd5b505050506040513d6000823e3d601f19601f820116820180604052508101906116309190612147565b50505050505050565b600082828401915081101561164d57600080fd5b92915050565b600073ffffffffffffffffffffffffffffffffffffffff82169050919050565b6000819050919050565b600061169861169361168e84611653565b611673565b611653565b9050919050565b60006116aa8261167d565b9050919050565b60006116bc8261169f565b9050919050565b6116cc816116b1565b82525050565b60006020820190506116e760008301846116c3565b92915050565b6000604051905090565b600080fd5b600080fd5b600061170c82611653565b9050919050565b61171c81611701565b811461172757600080fd5b50565b60008135905061173981611713565b92915050565b6000819050919050565b6117528161173f565b811461175d57600080fd5b50565b60008135905061176f81611749565b92915050565b600080600080600060a08688031215611791576117906116f7565b5b600061179f8882890161172a565b95505060206117b08882890161172a565b94505060406117c18882890161172a565b93505060606117d28882890161172a565b92505060806117e388828901611760565b9150509295509295909350565b6117f98161173f565b82525050565b600060208201905061181460008301846117f0565b92915050565b6000602082840312156118305761182f6116f7565b5b600061183e8482850161172a565b91505092915050565b600080fd5b600080fd5b600080fd5b60008083601f84011261186c5761186b611847565b5b8235905067ffffffffffffffff8111156118895761188861184c565b5b6020830191508360018202830111156118a5576118a4611851565b5b9250929050565b60008060008060008060a087890312156118c9576118c86116f7565b5b60006118d789828a0161172a565b96505060206118e889828a01611760565b95505060406118f989828a01611760565b945050606061190a89828a0161172a565b935050608087013567ffffffffffffffff81111561192b5761192a6116fc565b5b61193789828a01611856565b92509250509295509295509295565b60008115159050919050565b61195b81611946565b82525050565b60006020820190506119766000830184611952565b92915050565b60008060008060808587031215611996576119956116f7565b5b60006119a48782880161172a565b94505060206119b58782880161172a565b93505060406119c68782880161172a565b92505060606119d787828801611760565b91505092959194509250565b60006119ee8261169f565b9050919050565b6119fe816119e3565b82525050565b6000602082019050611a1960008301846119f5565b92915050565b611a2881611701565b82525050565b6000602082019050611a436000830184611a1f565b92915050565b60008060408385031215611a6057611a5f6116f7565b5b6000611a6e8582860161172a565b9250506020611a7f85828601611760565b9150509250929050565b600082825260208201905092915050565b7f4f776e61626c653a2063616c6c6572206973206e6f7420746865206f776e6572600082015250565b6000611ad0602083611a89565b9150611adb82611a9a565b602082019050919050565b60006020820190508181036000830152611aff81611ac3565b9050919050565b600081519050611b1581611749565b92915050565b600060208284031215611b3157611b306116f7565b5b6000611b3f84828501611b06565b91505092915050565b6000604082019050611b5d6000830185611a1f565b611b6a60208301846117f0565b9392505050565b611b7a81611946565b8114611b8557600080fd5b50565b600081519050611b9781611b71565b92915050565b600060208284031215611bb357611bb26116f7565b5b6000611bc184828501611b88565b91505092915050565b7f4e487b7100000000000000000000000000000000000000000000000000000000600052601160045260246000fd5b6000611c048261173f565b9150611c0f8361173f565b925082821015611c2257611c21611bca565b5b828203905092915050565b7f54726164652052657665727465642c204e6f2050726f666974204d6164650000600082015250565b6000611c63601e83611a89565b9150611c6e82611c2d565b602082019050919050565b60006020820190508181036000830152611c9281611c56565b9050919050565b7f546869732066756e6374696f6e2063616e206f6e6c792062652063616c6c656460008201527f20627920746865204161766520506f6f6c000000000000000000000000000000602082015250565b6000611cf5603183611a89565b9150611d0082611c99565b604082019050919050565b60006020820190508181036000830152611d2481611ce8565b9050919050565b7f496e76616c69642062616c616e636520666f722074686520636f6e7472616374600082015250565b6000611d61602083611a89565b9150611d6c82611d2b565b602082019050919050565b60006020820190508181036000830152611d9081611d54565b9050919050565b7f5a65726f2062616c616e636520696e20636f6e74726163740000000000000000600082015250565b6000611dcd601883611a89565b9150611dd882611d97565b602082019050919050565b60006020820190508181036000830152611dfc81611dc0565b9050919050565b7f4e6f7420656e6f75676820616d6f756e7420746f2072657475726e206c6f616e600082015250565b6000611e39602083611a89565b9150611e4482611e03565b602082019050919050565b60006020820190508181036000830152611e6881611e2c565b9050919050565b7f617070726f7665206661696c6564000000000000000000000000000000000000600082015250565b6000611ea5600e83611a89565b9150611eb082611e6f565b602082019050919050565b60006020820190508181036000830152611ed481611e98565b9050919050565b7f4e487b7100000000000000000000000000000000000000000000000000000000600052604160045260246000fd5b7f4e487b7100000000000000000000000000000000000000000000000000000000600052603260045260246000fd5b600081519050919050565b600082825260208201905092915050565b6000819050602082019050919050565b611f6e81611701565b82525050565b6000611f808383611f65565b60208301905092915050565b6000602082019050919050565b6000611fa482611f39565b611fae8185611f44565b9350611fb983611f55565b8060005b83811015611fea578151611fd18882611f74565b9750611fdc83611f8c565b925050600181019050611fbd565b5085935050505092915050565b600060408201905061200c60008301856117f0565b818103602083015261201e8184611f99565b90509392505050565b6000601f19601f8301169050919050565b61204182612027565b810181811067ffffffffffffffff821117156120605761205f611edb565b5b80604052505050565b60006120736116ed565b905061207f8282612038565b919050565b600067ffffffffffffffff82111561209f5761209e611edb565b5b602082029050602081019050919050565b60006120c36120be84612084565b612069565b905080838252602082019050602084028301858111156120e6576120e5611851565b5b835b8181101561210f57806120fb8882611b06565b8452602084019350506020810190506120e8565b5050509392505050565b600082601f83011261212e5761212d611847565b5b815161213e8482602086016120b0565b91505092915050565b60006020828403121561215d5761215c6116f7565b5b600082015167ffffffffffffffff81111561217b5761217a6116fc565b5b61218784828501612119565b91505092915050565b7f504f4f4c20646f6573206e6f7420657869737421000000000000000000000000600082015250565b60006121c6601483611a89565b91506121d182612190565b602082019050919050565b600060208201905081810360008301526121f5816121b9565b9050919050565b600081519050919050565b600082825260208201905092915050565b60005b8381101561223657808201518184015260208101905061221b565b83811115612245576000848401525b50505050565b6000612256826121fc565b6122608185612207565b9350612270818560208601612218565b61227981612027565b840191505092915050565b600061ffff82169050919050565b61229b81612284565b82525050565b600060a0820190506122b66000830188611a1f565b6122c36020830187611a1f565b6122d060408301866117f0565b81810360608301526122e2818561224b565b90506122f16080830184612292565b9695505050505050565b7f4f776e61626c653a206e6577206f776e657220697320746865207a65726f206160008201527f6464726573730000000000000000000000000000000000000000000000000000602082015250565b6000612357602683611a89565b9150612362826122fb565b604082019050919050565b600060208201905081810360008301526123868161234a565b9050919050565b60006123988261173f565b91506123a38361173f565b9250827fffffffffffffffffffffffffffffffffffffffffffffffffffffffffffffffff038211156123d8576123d7611bca565b5b828201905092915050565b6000819050919050565b60006124086124036123fe846123e3565b611673565b61173f565b9050919050565b612418816123ed565b82525050565b600060a08201905061243360008301886117f0565b612440602083018761240f565b81810360408301526124528186611f99565b90506124616060830185611a1f565b61246e60808301846117f0565b969550505050505056fea2646970667358221220ad867aa0be7c9171447e01fc8a3335bc390a005dffc43738658084b021790d1264736f6c634300080a0033",
  "immutableReferences": {
    "347": [
      {
        "length": 32,
        "start": 795
      }
    ],
    "351": [
      {
        "length": 32,
        "start": 2057
      },
      {
        "length": 32,
        "start": 2814
      },
      {
        "length": 32,
        "start": 3920
      },
      {
        "length": 32,
        "start": 4392
      },
      {
        "length": 32,
        "start": 4549
      }
    ]
  },
  "source": "// SPDX-License-Identifier: UNLICENSED\npragma solidity 0.8.10;\n\n// Uncomment this line to use console.log\n// import \"hardhat/console.sol\";\n\nimport {FlashLoanSimpleReceiverBase} from \"@aave/core-v3/contracts/flashloan/base/FlashLoanSimpleReceiverBase.sol\";\nimport {IPoolAddressesProvider} from \"@aave/core-v3/contracts/interfaces/IPoolAddressesProvider.sol\";\nimport {SafeMath} from \"@aave/core-v3/contracts/dependencies/openzeppelin/contracts/SafeMath.sol\";\nimport \"./Arb.sol\";\n\ncontract FlashLoan is FlashLoanSimpleReceiverBase, Arb {\n\n    using SafeMath for uint256;\n\n    constructor(address _addressProvider) FlashLoanSimpleReceiverBase(IPoolAddressesProvider(_addressProvider)) {\n    }\n\n    /**\n     * @notice Executes an operation after receiving the flash-borrowed asset\n     * @dev Ensure that the contract can return the debt + premium, e.g., has enough funds to repay and has approved the Pool to pull the total amount\n     * @param asset The address of the flash-borrowed asset\n     * @param amount The amount of the flash-borrowed asset\n     * @param premium The fee of the flash-borrowed asset\n     * @param initiator The address of the flashloan initiator\n     * @param params The byte-encoded params passed when initiating the flashloan\n     * @return True if the execution of the operation succeeds, false otherwise\n     */\n    function executeOperation(\n        address asset,\n        uint256 amount,\n        uint256 premium,\n        address initiator,\n        bytes calldata params\n    ) external override returns (bool) {\n        require(msg.sender == address(POOL), \"This function can only be called by the Aave Pool\");\n        require(amount <= IERC20(asset).balanceOf(address(this)), \"Invalid balance for the contract\");\n        require(IERC20(asset).balanceOf(address(this)) > 0, \"Zero balance in contract\");\n\n        // Your Arb logic goes here.\n\n\n        // Make sure to have this call at the end\n        uint256 amountOwed = amount.add(premium);\n        require(IERC20(asset).balanceOf(address(this)) >= amountOwed, \"Not enough amount to return loan\");\n        require(IERC20(asset).approve(address(POOL), amountOwed), \"approve failed\");\n        return true;\n    }\n\n    function requestFlashLoan(address _asset, uint256 _amount) public onlyOwner {\n        require(address(POOL) != address(0), \"POOL does not exist!\");\n\n        address receiverAddress = address(this);\n        address asset = _asset;\n        uint256 amount = _amount;\n        bytes memory params = \"\";\n        uint16 referralCode = 0;\n\n        /**\n         * @notice Allows smartcontracts to access the liquidity of the pool within one transaction,\n         * as long as the amount taken plus a fee is returned.\n         * @dev IMPORTANT There are security concerns for developers of flashloan receiver contracts that must be kept\n         * into consideration. For further details please visit https://developers.aave.com\n         * @param receiverAddress The address of the contract receiving the funds, implementing IFlashLoanSimpleReceiver interface\n         * @param asset The address of the asset being flash-borrowed\n         * @param amount The amount of the asset being flash-borrowed\n         * @param params Variadic packed params to pass to the receiver as extra information\n         * @param referralCode The code used to register the integrator originating the operation, for potential rewards.\n         *   0 if the action is executed directly by the user, without any middle-man\n         **/\n        POOL.flashLoanSimple(receiverAddress, asset, amount, params, referralCode);\n    }\n\n\n    function getTokenBalance (address _tokenContractAddress) external view returns (uint256) {\n\t\tuint balance = IERC20(_tokenContractAddress).balanceOf(address(this));\n\t\treturn balance;\n\t}\n\t\n\tfunction recoverEth() external onlyOwner {\n\t\tpayable(msg.sender).transfer(address(this).balance);\n\t}\n\n\tfunction recoverTokens(address tokenAddress) external onlyOwner {\n\t\tIERC20 token = IERC20(tokenAddress);\n\t\ttoken.transfer(msg.sender, token.balanceOf(address(this)));\n\t}\n\n\treceive() external payable {}\n}",
  "sourcePath": "/Users/vasilis/Projects/flashloan-swaps/contracts/FlashLoan.sol",
  "compiler": {
    "name": "solc",
    "version": "0.8.10+commit.fc410830.Emscripten.clang"
  },
  "schemaVersion": "3.4.10",
  "updatedAt": "2022-11-19T15:56:57.450Z",
  "networkType": "ethereum",
  "devdoc": {
    "kind": "dev",
    "methods": {
      "executeOperation(address,uint256,uint256,address,bytes)": {
        "details": "Ensure that the contract can return the debt + premium, e.g., has enough funds to repay and has approved the Pool to pull the total amount",
        "params": {
          "amount": "The amount of the flash-borrowed asset",
          "asset": "The address of the flash-borrowed asset",
          "initiator": "The address of the flashloan initiator",
          "params": "The byte-encoded params passed when initiating the flashloan",
          "premium": "The fee of the flash-borrowed asset"
        },
        "returns": {
          "_0": "True if the execution of the operation succeeds, false otherwise"
        }
      },
      "owner()": {
        "details": "Returns the address of the current owner."
      },
      "renounceOwnership()": {
        "details": "Leaves the contract without owner. It will not be possible to call `onlyOwner` functions anymore. Can only be called by the current owner. NOTE: Renouncing ownership will leave the contract without an owner, thereby removing any functionality that is only available to the owner."
      },
      "transferOwnership(address)": {
        "details": "Transfers ownership of the contract to a new account (`newOwner`). Can only be called by the current owner."
      }
    },
    "version": 1
  },
  "userdoc": {
    "kind": "user",
    "methods": {
      "executeOperation(address,uint256,uint256,address,bytes)": {
        "notice": "Executes an operation after receiving the flash-borrowed asset"
      }
    },
    "version": 1
  }
}